:020000040800F2
:10000000504500202D300008490700084B07000824
:1000100055070008570700085907000800000000AE
:100020000000000000000000000000005B07000866
:100030005D0700080000000093C50008492D000876
:1000400047300008473000084730000847300008B4
:1000500047300008473000084730000847300008A4
:100060004730000847300008473000084730000894
:100070004730000847300008473000084730000884
:100080004730000847300008473000084730000874
:100090004730000847300008473000084730000864
:1000A0004730000847300008473000084730000854
:1000B0004730000847300008C3B300084730000845
:1000C0004730000847300008473000084730000834
:1000D00047300008992F000823B500084730000872
:1000E0004730000847300008473000084730000814
:1000F0004730000847300008473000084730000804
:1001000047300008473000084730000847300008F3
:10011000D90D00084730000847300008E70B0008F9
:1001200047300008473000084730000847300008D3
:10013000DFF80CD00CF03EF80048004741040008FE
:10014000504500200EB5DFF8E493DFF8E4B3F94F33
:10015000DFF8E483F94DFA4E6FEA090A01242868B2
:10016000D0F83E00484501DD88F8004000EB0A0168
:10017000594501D23C7002E0387801280BD198F83B
:100180000000012807D1307828B902F0F8FC0BF004
:10019000EEFD02F038F93078012807D1E948C0F8BF
:1001A00090410220307029680420C88602A90820E6
:1001B0000022CDE900014FF4FA731146104609F010
:1001C000C8FDCCE70EB502AD082402F0A2F80AF093
:1001D00088FB00F0ECFB00220A2311461046CDE913
:1001E000004509F0B6FDF0E79EB0D44C1CAD0826E2
:1001F000D54F01F03FF901F0A8FF3022394668469B
:100200000BF013FAD049402210390CA80BF00DFA6C
:100210000DF1300C9CE80F0002F009F8302239464D
:1002200068460BF002FAC849402210390CA80BF0BE
:10023000FCF90DF1300C9CE80F0001F0E4FF21689F
:10024000C86101F068FD052002F0D1FD01F018FE43
:100250000022CDE900650A231146104609F079FD18
:10026000C7E79EB0B84E1CAC082530223146684620
:100270000BF0DBF9B449402210390CA80BF0D5F98A
:100280000DF1300C9CE80F0001F084FF00231A46AA
:100290001946AE48009407F0C1F900F061FE00F085
:1002A0001EFE1CAA0021A94807F00FFBCDE900544F
:1002B000002164230122084609F04BFDD5E70EB565
:1002C00002AC082500231A461946A048009407F0FE
:1002D000A5F900F0C7FD00F090FF02AA00219B489D
:1002E00007F0F3FA0022CDE900540A231146104624
:1002F00009F02FFDE6E72DE9F0438BB004F057FB42
:1003000009A808F0E4F9012109AA084605F0A9FDA9
:1003100004F022FCDFF8389299F80010491C89F8A3
:10032000001004F01DFC894809AB012289A1603846
:1003300007F0DDFB854809AB042288A1303807F0BF
:10034000D6FB00240326CDE9064609AD86494FF4C5
:1003500080774FF019080895059406202346AFF2E0
:10036000A1028DE803018048CDE903747FA1C43860
:1003700008F043FCCDE9064680200C210895CDE924
:1003800002107D4A09200594CDE90002049400235F
:10039000AFF23112784879A1C43808F02EFCCDE9CB
:1003A00006467A490720089505940023AFF2C71244
:1003B0008DE803017548CDE9037475A1C43808F0D0
:1003C0001CFCCDE9064675490520089505940023D7
:1003D000AFF20F228DE803017048CDE9037470A1DC
:1003E000C43808F00AFCCDE9064672491220089587
:1003F00005940023AFF2B3228DE803016D48CDE9E7
:1004000003746DA1C43808F0F8FB04F0A5FB99F85B
:100410000010491E11F0FF0189F8001007D16B4947
:10042000098821B104F09CFB06F090F801E004F08B
:1004300097FB09A9002008F0C1FC0BB0BDE8F083D0
:1004400030B58BB002F08EFC4FF4A06002F000FEDD
:1004500002F060FD4FF4E134204600F011FC00256D
:10046000012223461146284600950AF09DF90AF01C
:100470001CFA00F0CDFB01F02DF800F0F3FF00F0C6
:100480001DFA02F05FFB48214FF47A6002F004FC91
:1004900009A805F07CFB04F05FFB2D4C2178491C7A
:1004A000217004F05DFB09AA49A1284806F075FFF8
:1004B00009A9032005950695CDE90701474B802141
:1004C0000C22CDE90003CDE9022104950023AFF20F
:1004D000D912424842A1C43808F08FFB04F03CFB1B
:1004E0002178491E11F0FF01217007D13749098891
:1004F00021B104F035FB06F029F801E004F030FBEF
:1005000009A805F06AFD0BB0002030BD704730B57A
:1005100000240BB2002B7DDB8B18642B7AD8334B75
:100520001B88C91A09B2324B71E073E000004842DF
:10053000FFFF0B00B0000020BC00002024000020C2
:100540003C00002000802142841F0020141D002058
:10055000540100204B4559204D73670044415441DC
:10056000204D736700000000A40700204D61696EF4
:10057000207461736B000000680C00204B6579707B
:10058000726F63657373207461736B002C0F0020AE
:100590004D7367646973207461736B00F0130020FE
:1005A000436F6D6D756E69636174696F6E20746100
:1005B000736B0000B418002063616C69627261742F
:1005C000696F6E207461736B0000000018010020D9
:1005D000544553545F4D555445580000E0040020E5
:1005E0007374617274207461736B000000000020EA
:1005F0008C02002033F811502D0A00F8015B13F82B
:100600001150491C521E00F8015B09B292B2002A37
:10061000F0D100E00124204630BD70B500240DB2B9
:10062000002D2CDB8D18642D29D8454D6D88491B74
:10063000444D09B27BB1012B22D11DE035F81130B8
:100640001B0A00F8013B15F81130491C521E00F836
:10065000013B09B292B2002AF0D111E010F8013B3F
:100660001B0225F8113010F8016B334325F81130C7
:10067000491C521E09B292B2002AEFD100E00124B7
:10068000204670BD2DE9F04100270EB2054614B298
:10069000002E2CDB8818102829D89BB1012B27D1DC
:1006A00022E0082C01DD082000E02046C2B22448E8
:1006B000B1B2001D0AF0E7FC083C083605F8010B52
:1006C00024B236B2002CECDC12E015F8013B082C09
:1006D00001DD082000E02046C2B21948B1B2001D79
:1006E0000AF0B8FC083C24B2002CEEDC00E0012744
:1006F0003846BDE8F0812DE9F0410546002708B2F3
:1007000014B2002818DB8818102815D80E4610E0FF
:10071000082C01DD082000E02046C2B2084831461E
:10072000801D0AF0B0FC083C083605F8010B24B225
:10073000B6B2002CECDC00E001273846D9E7000017
:100740000000002054030020704705480121C0F834
:10075000BC11FCE7FEE7FEE7FEE7704770470000CC
:10076000000021420CB500224C4800920192016821
:1007700041F4803101604FF4A063016801F400315D
:1007800001910099491C0091019911B90099994270
:10079000F3D10168890333D50121019140490A68E9
:1007A00042F010020A600A6822F003020A600A6836
:1007B00042F002020A60416841604168416041685C
:1007C00041F480614160416821F47C1141604168DD
:1007D00041F4E8114160016841F0807101600168F5
:1007E0008901FCD5416821F003014160416841F075
:1007F000020141604168C1F381010229FAD10CBDB7
:1008000001920CBD254810B5016841F0010101605D
:100810004168244A114041600168234A1140016047
:10082000016821F480210160416821F4FE014160EA
:100830004FF41F018160FFF795FF1C494FF00060E6
:10084000086010BD154A10B55068194B10F00C0126
:10085000184803D0042901D0082901D0036012E010
:100860005168536801F470114FF0020413F4803F93
:1008700004EB914102D053689B0301D50E4B00E07D
:100880000B4B5943016051680A4AC1F30311121D11
:10089000515C0268CA40026010BD000000100240B6
:1008A000002002400000FFF8FFFFF6FE08ED00E028
:1008B00000127A000800002000093D00F8B501216F
:1008C0000C2002F0F0FF0121084602F0ECFF0121AC
:1008D0001F4802F0F7FC7820ADF8000010241D4EF0
:1008E0008DF8034003258DF802506946304602F02A
:1008F0005EFC48F20300ADF800008DF80340164C92
:100900008DF802506946204602F051FC082130461D
:1009100002F0B7FC1021304602F0B3FC2021304633
:1009200002F0AFFC0121204602F0ABFC0221204680
:1009300002F0A7FC09480121C0F89811C0F89411F1
:1009400007480021C0F8BC11C0F88011F8BD0000B4
:1009500000023000000C01400008014000802142EC
:10096000000021422DE9F0438FB000240746A04645
:100970006E464FF020090A9409E00AF049FE00682B
:10098000405D202811D006F80490641CE4B23D5D5F
:10099000002DF2D106F804800AAA42A168460AF0A6
:1009A00085FE0A980FB0BDE8F0833555EDE730B508
:1009B000A1B0802168460AF051FE3B490878012821
:1009C0005CD100240C7020466B464A7804E00D1878
:1009D000ED781D54401CC0B28242F8D84C701C54B3
:1009E000194632A00AF045FE00282FD0694630A0F3
:1009F0000AF03FFE00282DD0694634A00AF039FEE7
:100A000000282AD0694637A00AF033FE002827D0F4
:100A100069463BA00AF02DFE002824D069463FA07D
:100A20000AF027FE10B3694643A00AF022FE00B385
:100A3000694644A00AF01DFEF0B10422694644A0B4
:100A40000AF025FEE8B144A00BF0D4FD48A00BF05D
:100A5000D1FD13E000F006FAF8E700F0B7FAF5E789
:100A600000F0F2FAF2E700F025FBEFE700F077FB89
:100A7000ECE701F05DFE01E001F080FE21B0002016
:100A800030BD6846FFF76EFF0BF045F93A4909683B
:100A900048600BF09EF902460B4638A00BF0AAFD09
:100AA000D4E7000025750000FC1F002000000000B6
:100AB000524541445F436F6E63656E747261746941
:100AC0006F6E5F56616C7565000000005A65726F4D
:100AD0005F43616C6962726174696F6E5F577269BE
:100AE00074650000526561645F5A65726F5F4361AF
:100AF0006C46696E6973685F466C61670000000050
:100B00005370616E5F43616C436F656666696369CC
:100B1000656E74525F56616C756500005370616E4E
:100B20005F43616C436F656666696369656E7457A0
:100B30005F56616C7565000044455649434549441C
:100B40000000000044455649434549443100000037
:100B5000436F6E5F00000000434F4D4D414E4420F7
:100B60004953204E4F54204558495354200D0A00F4
:100B7000405F400D0A0000002400002074656D7085
:100B800056616C75653D25660D0A00007FB50D4602
:100B900004460121202002F08FFEADF80440ADF89C
:100BA00000500024194DADF80640ADF802406946EA
:100BB000284602F05FFF01221146284603F017FA8B
:100BC0000121284603F0FEF937208DF80C008DF83E
:100BD0000D4002208DF80E0001208DF80F0003A8B3
:100BE00002F03BFA7FBD10B5084C0121204603F00E
:100BF00012FC002809D00121204603F018FC2046F1
:100C0000BDE81040002103F0DDB910BD0014004024
:100C1000154914484F2208601549144808601649C0
:100C2000144808604121017059214170512181709F
:100C30004E21C1700171492141712E218171C27112
:100C400001220281452282725622C2720173522110
:100C50004173312181733021C173084901617047AB
:100C6000704770475403002024000020281F0020F4
:100C7000380000208C0200201C0000209988776634
:100C800070B5054686B00121102002F00CFE01214E
:100C9000C80402F011FE4FF48060ADF80000032498
:100CA0008DF8024018206B4E8DF8030069463046DF
:100CB00002F07DFAF014ADF8000004208DF8030076
:100CC0006946304602F073FAB014ADF800008DF8B2
:100CD000024010208DF803006946304602F067FAA2
:100CE0005D4E304602F03EFB34208DF814000220A9
:100CF0008DF8150000248DF8164001208DF817009E
:100D000005A802F0AAF9ADF80C400C20ADF8084097
:100D1000ADF80E000195ADF80A40ADF8104001A9FC
:100D2000304602F04FFB012240F22551304602F0DE
:100D3000C6FB0121304602F0B8FB4848C0F8B0417C
:100D400006B070BD2DE9F041DFF810810E4601219B
:100D50000746C8F8B0114FF47A7002F029F8002461
:100D60003D4D0BE04021284602F056FC0028F9D00A
:100D7000395D284602F0EFFB641CE4B2B442F1D3C3
:100D80004021284602F048FC0028F9D00021C8F88C
:100D9000B011BDE8F0812DE9F041DFF8C0800D46CB
:100DA000002401210646C8F8B0114FF47A7001F012
:100DB000FFFF294F0AE0315D384602F0CCFB80216D
:100DC000384602F029FC0028F9D0641CAC42F2D36A
:100DD0000021C8F8B011DCE770B51F4D40F2255670
:100DE0003146284602F022FC38B13146284602F04E
:100DF0003CFC284602F0B3FBC4B21949887840286D
:100E000004D2CA1C84548878401C887070BD2DE9B7
:100E1000F047DFF84C800024074698F802500E4651
:100E2000A1460C700A2001F0E2FF98F80200A842E7
:100E30000ED1002D0CD0404604E00119C978395577
:100E4000641CE4B2AC42F8D38178317088F8029027
:100E5000BDE8F08700100140004C00400000224235
:100E6000401D002010B586B002240020F84A8DF8FD
:100E700014006946135C0B54401CC0B20828F9D317
:100E800008216846FFF75EFF962001F0B0FF05A934
:100E9000F048FFF7BCFF9DF8140009281DD1072179
:100EA000EC480AF00DF9EB499DF814200A4432F899
:100EB000022C52BA904210D1641CE7480A5D641CAF
:100EC00002700A5D641C42700A5D641C8270095DD8
:100ED000C170E14900684968886006B010BD10B56E
:100EE00086B00020DA4A02248DF8140069460832E0
:100EF000135C0B54401CC0B20828F9D30821684683
:100F0000FFF720FF962001F072FFD24805A91430A8
:100F1000FFF77DFF9DF814000928DED1CD48072199
:100F200014300AF0CDF8CB499DF8142014310A444E
:100F300032F8022C52BA9042CFD1641CC6480A5DE6
:100F4000641C02700A5D641C42700A5D641C82703D
:100F5000095DC170C04900684968C1F84600BCE736
:100F600000B587B00020BA498DF814006A461031E8
:100F70000B5C1354401CC0B20828F9D3082110465A
:100F8000FFF7E0FE962001F032FFB24805A92830B5
:100F9000FFF73DFF9DF81400072815D1AD48052146
:100FA00028300AF08DF8AB4A9DF81410283211440D
:100FB00031F8021C49BA884206D1A749B2F80300A9
:100FC000496840BAA1F84A0007B000BD30B500201A
:100FD00087B09F4A04468DF814006946183A135C9E
:100FE0000B54401CC0B20828F9D308216846FFF70B
:100FF000A9FE4FF4FA7001F0FAFE964805A95038A0
:10100000FFF705FF9DF8140008281BD19148062121
:1010100050380AF055F88F4A9DF81410503A114490
:1010200031F8021C49BA88420CD18B4D517968685D
:1010300001828AA00BF0DEFA6868214644828EA005
:101040000BF0D8FA07B030BD00B587B0002080495A
:101050008DF814006A4610390B5C1354401CC0B262
:101060000828F9D308211046FFF76CFE4FF4FA70F8
:1010700001F0BDFE774805A93C38FFF7C8FE9DF892
:1010800014000728A0D1734805213C380AF018F84D
:10109000704A9DF814103C3A114431F8021C49BAC8
:1010A000884291D16C4811794068418272A00BF05E
:1010B000A1FA89E730B5002087B0654902240546CA
:1010C0008DF814006A4608390B5C1354401CC0B2FA
:1010D0000828F9D308211046FFF734FE4FF4FA70C0
:1010E00001F085FE5B4805A92838FFF790FE9DF8C2
:1010F00014000928A6D157480721283809F0E0FF35
:1011000054499DF8142028390A4432F8022C52BA66
:10111000904297D1641C50480A5D641C02700A5DBD
:10112000641C42700A5D641C8270095DC1704A498A
:10113000006849680860CD820AF04BFE02460B4603
:1011400057A00BF057FA7DE7434910B54C6861682A
:101150000AF0C6FBA168BDE810400AF0F3BBF0B589
:1011600087B03D4E00248DF8144070682746006813
:10117000FFF7EAFF7168C860314601F108050860B1
:101180000878E8714878287288786872C878A872F8
:101190000B21284609F094FF010AE972287368467A
:1011A000295D0155641CE4B20D2CF9D30D21FFF724
:1011B000C9FD4FF4FA7001F01AFE264805A914384B
:1011C000FFF725FE9DF81400082814D121480621B8
:1011D000143809F075FF1F499DF814201439114483
:1011E00031F8021C49BA884205D170683946078334
:1011F00032A00BF0FFF907B0F0BD70B5164C00251A
:101200006068818A012903D0008A012808D011E092
:101210000582FFF7DBFE6068018A01290AD1858219
:101220006068408A30B9FFF70FFF6068418A012982
:1012300000D105826068C08A012801D1FFF73AFF1A
:101240006068008B01284BD1BDE8704087E7000043
:1012500084DD00085B1E0020200000204C796E64B5
:1012600069725F4E6F2D3E5A65726F5F43616C3DD0
:101270002564405F400D0A004C796E6469725F4ED0
:101280006F2D3E5A65726F5F43616C46696E69737C
:10129000685F466C61673D2564405F400D0A000051
:1012A0004C796E6469725F4E6F2D3E5370616E5F54
:1012B0004F6C643D2566405F400D0A004C796E64BA
:1012C00069725F4E6F2D3E5370616E5F4E65775F42
:1012D000466C61673D2564405F400D0A00000000D8
:1012E00070BD000038B50121042002F0DCFA0121B4
:1012F000102002F0D8FA0121082002F0D4FAC02010
:10130000ADF8000000248DF8034069466B4801F0F9
:101310004EFF0320ADF800008DF803406946684891
:1013200001F045FF3F20ADF800008DF8034069460D
:10133000644801F03CFF38BD10B501218CB008466F
:1013400002F0A8FA604C204603F074F85F48009061
:101350005F480021CDE901014820CDE9030180204B
:101360000590400006908000079020200890000221
:10137000CDE909016946204603F0C9F8012120465C
:1013800003F0EFF80CB010BD10B5012186B0480293
:1013900002F089FA01218DF8041000208DF8051063
:1013A0004FF46021CDE902100090484C09208DF8DF
:1013B00010004C3C6946204603F03CF9072301220B
:1013C0000621204603F0B6F90723022219462046DB
:1013D00003F0B0F9072303220821204603F0AAF9FD
:1013E000072304220921204603F0A4F9072305223C
:1013F0000A21204603F09EF9072306220B212046EE
:1014000003F098F907231A460C21204603F092F9BD
:10141000072308220E21204603F08CF90723092216
:101420000F21204603F086F90121204603F034F90C
:101430000121204603F026F9204603F040F920461A
:1014400003F042F90028FAD1204603F044F920467F
:1014500003F046F90028FAD10121204603F047F9AC
:1014600006B010BD10B5FFF73DFFFFF765FFBDE803
:10147000104089E770B586B00024142168460AF050
:10148000EDF8134B6A4603F19005002000EBC0060F
:10149000264432F8141033F81660401C3144C0B2B0
:1014A00022F814100828F1D3C1F3CC0025F8140059
:1014B000641CE4B2092CE8D306B070BD00080140FA
:1014C000000C014000100140080002404C24014083
:1014D000981E002008B50121082002F0E4F94FF41D
:1014E0004060ADF8000003208DF8020014208DF854
:1014F00003006946A44801F05AFE08BD0A20401EB8
:10150000C0B2FCD270470A20401EC0B2FCD2704765
:101510000A20401EC0B2FCD2704742F6DE6206E0EE
:101520001146491E0904090CFBD1401E80B2002857
:10153000F6D17047944810B510304FF40062026045
:1015400003150360FFF7DAFF8F48083000688E4C00
:1015500014342260FFF7D2FF2360FFF7CFFF002093
:1015600010BD894810B514304FF4006202600315B5
:101570000360FFF7C3FF844C10342360FFF7BEFF06
:101580002260BDE81040B9E77F4A00B514324FF43D
:1015900080631360FFF7B2FF4FF400601060FFF745
:1015A000ADFF794810300360FFF7A8FF13605DF8C6
:1015B00004EBA3E7744A00B514324FF48063136060
:1015C000FFF7A6FF4FF400601060FFF7A1FF6E4821
:1015D00010300360FFF79CFF13605DF804EB97E7A2
:1015E000694B10B514334FF480621A60FFF786FF21
:1015F000654C4FF4006010342060FFF77FFF2260DD
:10160000FFF77CFF1A60BDE8104077E75E4B10B52E
:1016100014334FF480621A60FFF770FF5A4C4FF496
:10162000006010342060FFF769FF2260FFF766FF5B
:101630005548083000681A60000501D5002010BD2B
:10164000012010BDF0B508224F4F15021437D40108
:1016500003463E1F0DE0FFF751FF180601D5356028
:1016600000E03D605806030EFFF748FF3460FFF7C7
:1016700045FF521ED2B23C60EDD2F0BDF0B508235A
:10168000414E00221802103630603F4F4410351D85
:1016900008370CE05006020E2C60FFF72FFF346075
:1016A000FFF72CFF3868000501D542F001025B1EF0
:1016B000DBB2EFD22C601046F0BD10B5FFF73AFF59
:1016C00000285CD1BE20FFF7BDFFFFF79FFF002879
:1016D00057D08020FFF7B6FFFFF798FFFFF713FF03
:1016E000FFF728FFBF20FFF7ADFFFFF78FFFFFF7E2
:1016F000C5FF264C2070FFF747FFFFF7BFFF607064
:10170000FFF76EFFFFF740FFFFF72BFFFFF712FF1A
:10171000002834D1BE20FFF795FFFFF777FF78B39D
:101720008120FFF78FFFFFF771FFFFF7ECFEFFF758
:1017300001FFBF20FFF786FFFFF768FFFFF79EFF5F
:101740006070FFF74DFFFFF70CFF607800F03F017E
:101750002078024661F39F12A28061F39F100AF085
:10176000E3FA0B490AF0EEF80AF033FB094A0A4B98
:101770000AF0D9F90AF058FBC4F80600002010BDA1
:10178000FFE7FFF7EEFEF9E7000C01406A1F0020BB
:1017900000F07F45CDCCCCCCCCCC004010B5FFF7D1
:1017A000C9FE00283DD1C020FFF74CFFFFF72EFFF8
:1017B000C0B30420FFF746FFFFF728FFFFF7BAFE8C
:1017C000C120FFF73FFFFFF721FFFFF757FFFE4C58
:1017D0002070FFF7D9FEFFF751FF6070FFF7D4FECE
:1017E000FFF74CFFA070FFF7CFFEFFF747FFE07059
:1017F000FFF7CAFEFFF742FF2071FFF7C5FEFFF7B4
:101800003DFF6071FFF7C0FEFFF738FFA071FFF7E3
:10181000BBFEFFF733FFE071FFF7E2FEFFF7A1FE2B
:10182000012010BDFFE7FFF79CFE0020F9E710B58F
:10183000FFF780FE0028F4D1C020FFF703FFFFF779
:10184000E5FE48B11220FFF7FDFEFFF7DFFE0020A6
:10185000FFF7F8FEFFF7DAFEFFF783FE0020E0E770
:1018600010B5FFF767FE0028DBD1C020FFF7EAFEC6
:10187000FFF7CCFE20B30020FFF7E4FEFFF7C6FE23
:10188000FFF758FEC120FFF7DDFEFFF7BFFEFFF7B1
:10189000F5FECD4C2072FFF777FEFFF7EFFE60728A
:1018A000FFF772FEFFF7EAFEA072FFF76DFEFFF78B
:1018B000E5FEE072FFF794FEFFF753FE0120B0E76C
:1018C000FFF74FFE0020ACE72DE9F047BE4A108835
:1018D00040BA00B2108203044FF080423BD5C043AF
:1018E000401C60F30F01C01060F31F418846814621
:1018F0000124924660420AF01CFA02460B46002080
:1019000051460BF021FD06460F460FFA88F0C4F150
:101910000301084100F001000AF01CFA32463B4680
:101920000AF001F906460F4628460AF052FA3B46ED
:1019300032460AF051F80AF077FA641CE4B2054620
:10194000032CD7D9C9F100000AF0E5F92946BDE812
:10195000F04709F0BFBF60F30F01C01060F31F41F3
:10196000884681460124924660420AF0E2F9024626
:101970000B46002051460BF0E7FC06460F460FFAD7
:1019800088F0C4F10301084100F001000AF0E2F917
:1019900032463B460AF0C7F806460F4628460AF08C
:1019A00018FA32463B460AF017F80AF03DFA641C72
:1019B000E4B20546032CD7D948460AF0ACF92946CB
:1019C000BDE8F04709F034BF2DE9F0477E4A508862
:1019D00040BA00B2508203044FF080423BD5C0436E
:1019E000401C60F30F01401360F31F41884681469D
:1019F0000124924660420AF09CF902460B46002000
:101A000051460BF0A1FC06460F460FFA88F0C4F1D0
:101A10000D01084100F001000AF09CF932463B46F6
:101A20000AF081F806460F4628460AF0D2F93B46EE
:101A3000324609F0D1FF0AF0F7F9641CE4B205461A
:101A40000D2CD7D9C9F100000AF065F92946BDE887
:101A5000F04709F03FBF60F30F01401360F31F41EF
:101A6000884681460124924660420AF062F90246A5
:101A70000B46002051460BF067FC06460F460FFA56
:101A800088F0C4F10D01084100F001000AF062F98C
:101A900032463B460AF047F806460F4628460AF00B
:101AA00098F932463B4609F097FF0AF0BDF9641CED
:101AB000E4B205460D2CD7D948460AF02CF9294640
:101AC000BDE8F04709F0B4BE2DE9F0473E4A9088E2
:101AD00040BA00B2908203044FF080423BD5C0432D
:101AE000401C60F30F01801360F31F41884681465C
:101AF0000124924660420AF01CF902460B4600207F
:101B000051460BF021FC06460F460FFA88F0C4F14F
:101B10000E01084100F001000AF01CF932463B4674
:101B20000AF001F806460F4628460AF052F93B46ED
:101B3000324609F051FF0AF077F9641CE4B2054619
:101B40000E2CD7D9C9F100000AF0E5F82946BDE806
:101B5000F04709F0BFBE60F30F01801360F31F412F
:101B6000884681460124924660420AF0E2F8024625
:101B70000B46002051460BF0E7FB06460F460FFAD6
:101B800088F0C4F10E01084100F001000AF0E2F80B
:101B900032463B4609F0C7FF06460F4628460AF084
:101BA00018F932463B4609F017FF0AF03DF9641C6C
:101BB000E4B205460E2CD7D948460AF0ACF82946BF
:101BC000BDE8F04702E000003A1F002009F030BEF7
:101BD0002DE9F0479D4AD08840BA00B2D082030474
:101BE0004FF0804234D5C043012303EBA00060F3E3
:101BF0000F0188461C46914660420AF09AF8024658
:101C00000B46002049460BF09FFB06460F460FFA95
:101C100088F0C4F11601084100F001000AF09AF8BA
:101C200032463B4609F07FFF06460F4628460AF03B
:101C3000D0F832463B4609F0CFFE0AF0F5F8641CB6
:101C4000E4B20546162CD7D380F00040BDE8F087FB
:101C5000801060F30F0188460024914660420AF02C
:101C600068F802460B46002049460BF06DFB06461D
:101C70000F460FFA88F0C4F11601084100F0010088
:101C80000AF068F832463B4609F04DFF06460F461B
:101C900028460AF09EF832463B4609F09DFE0AF0BF
:101CA000C3F8641CE4B20546162CD7D3CEE76749C7
:101CB000088940BA8881800970476449488940BAD8
:101CC000C881800970472DE9F041604CE08D0AF031
:101CD0002BF80746216A09F003FE0546A08D0AF09D
:101CE00023F806463846616A09F0FAFDE16909F011
:101CF0009FFD314609F0F4FDA16909F099FD2946DF
:101D000009F096FD524909F0EBFD524909F090FDAA
:101D1000A062BDE8F08130B54C4995B01031202269
:101D20000D46684609F081FC3022484908A809F0B0
:101D30007CFC08AC94E80F00FFF730FD052001F0B3
:101D400056F8FFF774FD052001F051F820222946CE
:101D5000684609F06AFC30223C4908A809F065FC95
:101D600094E80F00FFF77CFD052001F040F82022E9
:101D70002946684609F059FC3022344908A809F080
:101D800054FC94E80F00FFF79FFD304C20222946B9
:101D9000A061684609F049FC3022214608A809F0F4
:101DA00044FC0DF1200C9CE80F00FFF70DFEE061F4
:101DB00020222946684609F038FC3022214608A82E
:101DC00009F033FC0DF1200C9CE80F00FFF77CFEBE
:101DD000206220222946684609F027FC302221464D
:101DE00008A809F022FC0DF1200C9CE80F00FFF779
:101DF000EFFE606220222946684609F016FC302278
:101E0000214608A809F011FC0DF1200C9CE80F00F8
:101E1000FFF74DFFA08520222946684609F005FC02
:101E20003022214608A809F000FC08AD95E80F0013
:101E3000FFF743FFE085FFF746FFA06A00F07EFD55
:101E400005490968886215B0002030BD3A1F00209E
:101E50008820823D000048422400002010B5094C33
:101E6000A08809F077FF084A084B09F05CFE0022C1
:101E7000074B09F0CAFE09F0D7FFC4F8060010BDF1
:101E800000F0E5BB6A1F0020CDCCCCCCCCCC004010
:101E900000FEAF402DE9F84FFD480468208809F0A6
:101EA00043FF6FF00B09494609F08AFD09F091FFE5
:101EB0004FF0663B5A46F74B09F035FE0E46054695
:101EC0000022F54B09F02CFE02460B46284631460F
:101ED00009F09BFE09F0A8FFF04DA862A08809F068
:101EE00023FF494609F06CFD09F073FF8A46064658
:101EF0005A46E84B09F017FE0022E74B09F010FEA6
:101F000088465146DFF898A30746304600225346DC
:101F100009F009FE3A46434609F077FE09F084FFCE
:101F2000E862A08909F000FF494609F049FD09F07F
:101F300050FF06465A46D74B009109F0F4FD0022A7
:101F4000D54B09F0EDFD0746884630460022534642
:101F5000009909F0E8FD43463A4609F056FE09F0BB
:101F600063FF2863E08909F0DFFE494609F028FD98
:101F700009F02FFF5A46C74B09F0D5FD0F4606461C
:101F80000022C54B09F0CCFD02460B4630463946CF
:101F900009F03BFE09F048FF6863208A09F0C4FE9F
:101FA000494609F00DFD09F014FF884604465A46DB
:101FB000B84B09F0B8FD0022B74B09F0B1FD064659
:101FC0000F46204641460022534609F0ACFD3246FA
:101FD0003B4609F01AFE09F027FFA863BDE8F88F19
:101FE0002DE9F05FAD4CA06A09F0F3FEAD4DAE4EA9
:101FF0002A46334609F009FE0AF0F8FFAB4F0022EB
:102000003B4609F002FEDFF8A892DFF8A8A24A4694
:10201000534609F0E1FCDFF8A08202460B4600209F
:10202000414609F0F2FD4FF0663B5A46A34B09F0DA
:1020300074FD09F0F9FE2060E06A09F0CAFE2A4644
:10204000334609F0E2FD0AF0D1FF00223B4609F0D9
:10205000DCFD4A46534609F0BFFC02460B46002011
:10206000414609F0D2FD5A46944B09F056FD09F05D
:10207000DBFE6060206B09F0ACFE2A46334609F0B7
:10208000C4FD0AF0B3FF00223B4609F0BEFD4A46FC
:10209000534609F0A1FC02460B460020414609F0D8
:1020A000B4FD5A46854B09F038FD09F0BDFEA0612C
:1020B000606B09F08EFE2A46334609F0A6FD0AF051
:1020C00095FF00223B4609F0A0FD4A46534609F021
:1020D00083FC02460B460020414609F096FD5A4615
:1020E000764B09F01AFD09F09FFEE061A06B09F044
:1020F00070FE2A46334609F088FD0AF077FF002279
:102100003B4609F082FD4A46534609F065FC02460B
:102110000B460020414609F078FD5A46674B09F00E
:10212000FCFC09F081FE20626548216800680162BC
:10213000E1694162216AC0F83A106168C0F83E1056
:10214000A169C0F84210BDE8F09F10B553499CB09A
:10215000103130220C46684609F067FA40224F4998
:102160000CA809F062FA0DF1300C9CE80F00FFF7A3
:1021700091FE30222146684609F057FA402247492D
:102180000CA809F052FA0CAC94E80F00FFF728FFF6
:102190001CB010BD2DE9F0413D480068408909F0B0
:1021A000C3FD6FF00B0109F00BFC09F012FE4FF0BC
:1021B0006632384B09F0B7FC0022424B09F0B3FC01
:1021C00009F032FE354900250126C8633C493F4CE1
:1021D0000968C1F85E003C49884206DA642000F0D4
:1021E00006FEC4F8BC61642007E04FF4FA77384675
:1021F00000F0FDFDC4F8BC61384600F0F8FDC4F8FD
:10220000BC51BDE8F081224810B50068408809F053
:10221000A1FD4FF066321F4B09F085FC6FF00B02F9
:1022200009F062FD09F000FE1C49886010BD70B520
:1022300017480068008909F08DFD4FF06632154B94
:1022400009F071FC6FF00B0209F04EFD09F0ECFD96
:10225000124D1B4968610C68A06509F0BAFD1C4A63
:102260001C4B09F0D2FC1C4A1C4B09F056FC09F02F
:10227000DBFDE06268691A4988423BDC09F0A9FD90
:10228000184A194B09F04FFC184A194B3AE0000064
:102290003800002066660A4000000840741F0020D5
:1022A000008040407B14AE47E1FA284000DCAE409D
:1022B000697EA75CDAF16B3F0000F03F6612714067
:1022C00024000020000018400000204100002142AE
:1022D000CDCCCCCCCCCC0440D8899DD8899DD83FDE
:1022E000D7A320409A9999999999D93FAC1C5A64DF
:1022F0003BDFDF3F09F06DFD624A634B09F013FCE1
:10230000624A634B09F009FC09F08EFD206570BD3F
:1023100070472DE9F0415F4D5F4900232868032293
:102320000126478B0424012F02D0022F04D006E09F
:10233000C1F89431428302E0C1F894614483078E6E
:10234000012F02D0022F04D006E0C1F89831028696
:1023500002E0C1F898610486478E012F02D0022F57
:1023600002D002E0428600E04486878E012F02D030
:10237000022F04D006E0C1F88C31828602E0C1F859
:102380008C618486C78EDFF814C1012F02D0022F22
:1023900006D00AE0C1F89031C2868CF8003004E023
:1023A000C1F89061C4868CF80060018F3C4F012910
:1023B00002D0022904D006E0C7F88431028702E087
:1023C000C7F884610487B0F86210364801290CD040
:1023D000022912D0032907D140F6AC5101F0F3FFD6
:1023E00006202968A1F862000BE740F2DC5101F0F9
:1023F000EAFF2868A0F8624003E740F6C41101F044
:10240000E2FF0520EDE72DE9FE4FDFF88890224C32
:1024100003250127D9F800104FF0000802AE4FF055
:10242000100B4FF0040A002813DDC4F89081CD860C
:102430004FF00003CDE900B682B21946184607F006
:1024400088FCC4F89071D9F80010A1F836A0BDE856
:10245000FE8FFCDAC4F89071A1F836A009F069FC8F
:1024600021F0004109F09CFC0023CDE900B682B2C6
:102470001946184607F06DFCC4F89081D9F80000A1
:10248000C586E4E785EB51B81E850140F6285C8FD0
:10249000C2F5134024000020008021423C000020AF
:1024A000000021420004004008B50121082001F08D
:1024B000FAF94FF44060ADF8000003208DF80200F7
:1024C00014208DF803006946D04800F070FE08BD66
:1024D0001E20401EC0B2FCD2704742F6DE6206E00B
:1024E0001146491E0904090CFBD1401E80B2002888
:1024F000F6D17047C54810B510304FF40062026045
:1025000003150360FFF7E4FFC04808300068BF4CC4
:1025100014342260FFF7DCFF2360FFF7D9FF0020AF
:1025200010BDBA4810B514304FF4006202600315B4
:102530000360FFF7CDFFB54C10342360FFF7C8FFF1
:102540002260BDE81040C3E7B04A00B514324FF432
:1025500080631360FFF7BCFF4FF400601060FFF76B
:10256000B7FFAA4810300360FFF7B2FF13605DF8B1
:1025700004EBADE7A54B10B514334FF480621A603D
:10258000FFF7A6FFA14C4FF4006010342060FFF766
:102590009FFF2260FFF79CFF1A60BDE8104097E79D
:1025A0009A4B10B514334FF480621A60FFF790FF16
:1025B000964C4FF4006010342060FFF789FF2260D2
:1025C000FFF786FF9148083000681A60000501D5C2
:1025D000002010BD012010BDF0B508228B4F150260
:1025E0001437D40103463E1F0DE0FFF771FF1806B4
:1025F00001D5356000E03D605806030EFFF768FF27
:102600003460FFF765FF521ED2B23C60EDD2F0BDE0
:10261000F0B508237D4E00221802103630607B4F43
:102620004410351D08370CE05006020E2C60FFF7F1
:102630004FFF3460FFF74CFF3868000501D542F0CA
:1026400001025B1EDBB2EFD22C601046F0BD10B56C
:102650000520FFF742FFFFF74DFF00285ED1BE20A7
:10266000FFF7BAFFFFF79CFF002859D08020FFF743
:10267000B3FFFFF795FFFFF72BFFFFF73BFFBF20EF
:10268000FFF7AAFFFFF78CFFFFF7C2FF604C207037
:10269000FFF770FFFFF745FF0520FFF71EFFFFF76D
:1026A00029FF00283AD1BE20FFF796FFFFF778FFF9
:1026B000A8B38120FFF790FFFFF772FFFFF708FF35
:1026C000FFF718FFBF20FFF787FFFFF769FFFFF74E
:1026D0009FFF6070FFF74EFFFFF723FF607800F069
:1026E0003F012078024661F39F12A28061F39F10A0
:1026F00009F01AFB474909F025F909F06AFB464A37
:10270000464B09F010FA09F08FFBC4F80600444C60
:1027100021688A8E032A07D00020C86410BDFFE715
:10272000FFF7FFFE0020F9E700F07CF82168F4E7EE
:1027300000B50520FFF7D1FEFFF7DCFE002818D119
:10274000BE20FFF749FFFFF72BFF98B15F20FFF78F
:1027500043FFFFF725FF8F20FFF73EFFFFF720FF26
:102760000120FFF739FFFFF71BFFFFF703FFFFF71C
:10277000D8FE00BDFFF7D5FE002000BD10B5052036
:10278000FFF7ABFEFFF7B6FE0028C7D1BE20FFF76C
:1027900023FFFFF705FFA0B35F20FFF71DFFFFF743
:1027A000FFFE3F20FFF718FFFFF7FAFEFF20FFF7BD
:1027B00013FFFFF7F5FE822000F019FB5F20FFF703
:1027C0000BFFFFF7EDFE8F20FFF706FFFFF7E8FE98
:1027D0000020FFF701FFFFF7E3FE5F20FFF7FCFE9D
:1027E000FFF7DEFE3F20FFF7F7FEFFF7D9FEBB2025
:1027F000FFF7F2FEFFF7D4FEFFF7BCFEFFF791FEF6
:102800008CE7FFE7FFF78DFE002087E7000C014013
:102810006A1F002000F07F45CDCCCCCCCCCC004052
:10282000240000202DE9F047C34C054621462078BE
:1028300009694FF07E58012806D0C0480068B0F8FA
:102840005C20012A3BD03FE04FF08040A562C4E904
:102850000B5008F0EDFF6063284609F0BAFA0BF060
:102860005FFA06460F46606809F0B3FA32463B4607
:1028700009F059F909F0D8FA0146E063206B08F035
:10288000D7FF0146606B074609F05CF8A063E16A78
:1028900006468946284609F01DF8314609F020F819
:1028A000494608F0C5FFA0623146404609F012F8DB
:1028B000394609F015F82063002020703AE0A04A5C
:1028C000A2620222A0F85C20A66AE662206B08F0F1
:1028D000AFFF6063304609F07CFA0BF021FA064640
:1028E0000F46606809F075FA32463B4609F01BF95D
:1028F00009F09AFA0146E063206B08F099FF01465F
:10290000606B074609F01EF8A063E16A0646894637
:10291000284608F0DFFF314608F0E2FF494608F09C
:1029200087FFA0623146404608F0D4FF394608F0E0
:10293000D7FF2063A06AE061BDE8F0872DE9F0478A
:102940007D4C05462146607849694FF07E58012844
:1029500038D0A66DE665206E08F06AFF60663046E6
:1029600009F037FA0BF0DCF906460F46A06809F0CB
:1029700030FA32463B4609F0D6F809F055FA0146DE
:10298000E066206E08F054FF0146606E074608F0CE
:10299000D9FFA066E16D06468946284608F09AFFF1
:1029A000314608F09DFF494608F042FFA0653146D8
:1029B000404608F08FFF394608F092FF2066A06D70
:1029C0002062B9E74FF08040A565C4E9175008F0D0
:1029D0002FFF6066284609F0FCF90BF0A1F90646C6
:1029E0000F46A06809F0F5F932463B4609F09BF81E
:1029F00009F01AFA0146E066206E08F019FF014658
:102A0000606E074608F09EFFA066E16D06468946A7
:102A1000284608F05FFF314608F062FF494608F09B
:102A200007FFA0653146404608F054FF394608F0DC
:102A300057FF206600206070C1E72DE9F0473E4C4B
:102A400005462146A07889694FF07E58012838D084
:102A5000266C6664A06C08F0EBFEE064304609F07A
:102A6000B8F90BF05DF906460F46E06809F0B1F9D8
:102A700032463B4609F057F809F0D6F90146606541
:102A8000A06C08F0D5FE0146E06C074608F05AFF3E
:102A90002065616C06468946284608F01BFF3146D2
:102AA00008F01EFF494608F0C3FE20643146404648
:102AB00008F010FF394608F013FFA064206C606234
:102AC0003AE74FF080402564C4E9115008F0B0FEA9
:102AD000E064284609F07DF90BF022F906460F461E
:102AE000E06809F076F932463B4609F01CF809F037
:102AF0009BF9E066616DA06C08F09AFE0146E06CFF
:102B0000074608F01FFF2065616C06468946284687
:102B100008F0E0FE314608F0E3FE494608F088FE82
:102B200020643146404608F0D5FE394608F0D8FE0C
:102B3000A0640020A070C1E7400000202400002015
:102B4000E17AA43F4B4800224FF08041026042608E
:102B50008260C2608262C16247490163474A426340
:102B60004FF033318163464AC26300210161416104
:102B70008161C161016241620164416470472DE974
:102B8000F04741483F4D4FF001080068394CD0F8FC
:102B90003E60AE606868074609F01BF9206061601E
:102BA0003A49384608F044FE314609F059F90DD843
:102BB000374900202870C1F8908120616061A061D0
:102BC000E061206260622064606401E085F800805A
:102BD000A86809F0FEF8A060E1602268636808F068
:102BE0009FFF2061616121F000410022294B09F023
:102BF00003F909D800212164616421616161A16147
:102C0000E1612162616207E022696369206C616CA5
:102C100008F0E2FE2064616425696669A269E369DF
:102C20002846314608F079FFA26BE36B08F07BFF82
:102C300081468A46226C636C206B616B08F073FFDF
:102C400007468846A06AE16A2A46334608F06BFFC9
:102C50003A46434608F0C0FE4A46534608F0BCFEDA
:102C600009F0E2F8A561E66109F081F8BDE8F047F6
:102C700009F051B8B41F00207B14AE47E17A943FAD
:102C80003333C33FB0000020240000200000204167
:102C90000080214200804B4030B50D46044689B08B
:102CA0000121022000F008FE0121112000F0FBFDAF
:102CB00001211A4800F006FB4022ADF81C20182222
:102CC0008DF81F2003208DF81E0007A9144800F07E
:102CD0006EFAADF80440ADF800500024114DADF887
:102CE0000640ADF802406946284600F0C3FE702158
:102CF000ADF80C100120ADF80E00ADF8144003A99A
:102D0000284600F0F0FE0821284601F039FA01219A
:102D1000284601F057F909B030BD0000000C1A0038
:102D2000001001400004004008B5684603F032F886
:102D300008BD08B5684603F066F808BD08B56A46E0
:102D4000082106F0B7FF08BD364810B50078012805
:102D500007D102F0ADFF07F00AF9BDE8104002F01C
:102D6000B2BF10BD10B56FF0040000F0B6F92E48E8
:102D70002E492F4B0068304CB0FBF1F2B0FBF1F064
:102D80001A702C4A1168B4FBF1F1414310684FF4FA
:102D90007A72B2FBF0F058804FF0E020026942F006
:102DA000020202614161016941F00101016110BD4E
:102DB000F8B54FF0E02700247E691D49097800FB33
:102DC00001F5684602F0E6FFB969B8698842FCD0AF
:102DD00002D2A1EB000102E0A6EB000211440C4478
:102DE0000146AC42F1D3684603F00DF8F8BD70B56A
:102DF00004460C48007878B11048007860B90C4D52
:102E00006888844203D3B4FBF0F0FFF797FF68882B
:102E1000B4FBF0F100FB11444FF47A706043BDE85D
:102E20007040C5E70D0100200800002000127A0064
:102E3000BE00002090DF000840420F000C0100207F
:102E4000704777490A885206FCD5754AC1B2121DEF
:102E500011807047724801888906FCD57048001DB2
:102E60000088C0F30800704738B50121042000F045
:102E70001AFD4FF40070ADF8000018208DF8030023
:102E80000320684C8DF802006946204600F08FF957
:102E90002115ADF8001004218DF803106946204675
:102EA00000F085F938BD1FB50121880300F0FBFC57
:102EB0004FF4E13000900020ADF80400ADF80600BA
:102EC000ADF80800ADF80C000C20ADF80A0069461A
:102ED000534800F077FA1FBD08B525208DF8000093
:102EE00000208DF8010002208DF8020001208DF8ED
:102EF0000300684600F0B1F808BD4B4A00210846BF
:102F00001170917051701318401CC0B2D9703C28D8
:102F1000F9D3704770B5FFF7C6FFFFF7A5FFFFF7BE
:102F2000DBFFFFF7EAFF3E4D40F2255421462846DD
:102F300000F09BFB01222146284600F0C0FA402108
:102F4000284600F070FB2846BDE87040012100F0E3
:102F5000ACBA10B5324C0146204600F0FCFA802194
:102F6000204600F059FB0028F9D010BD2DE9F041B2
:102F70000D46064600242A4F0AE0315D384600F02F
:102F8000EAFA8021384600F047FB0028F9D0641C9B
:102F9000AC42F2D3BDE8F08170B502F089FE204C5E
:102FA00040F225552946204600F040FBC0B1294695
:102FB000204600F05AFB204600F0D1FAC0B21A4C6D
:102FC000082811D00A280BD0E11C0D281CD06278EB
:102FD000632A03D250546178491C6170FFF7B9FF2E
:102FE000BDE8704002F06FBE60780028F8D008207D
:102FF000FFF7AFFF2020FFF7ACFF0820FFF7A9FF86
:103000006078401E6070EBE76278002050540D201D
:10301000FFF79FFF0A20FFF79CFF01202070DFE7EA
:103020000038014000080140FC1F0020064880478E
:1030300006480047FEE7FEE7FEE7FEE7FEE7FEE79D
:10304000FEE7FEE7FEE7FEE705080008310100089D
:103050002849084328490860704730B50F23C278D3
:1030600001780125F2B1244A126801F1E02102F44D
:10307000E062C2F5E062120AC2F10404D340427871
:10308000A24084781C401443220181F80024007877
:1030900000F01F018D404009800000F1E020C0F8E1
:1030A000005130BD01F01F0085404809800000F14B
:1030B000E020C0F8805130BD104A114001430E4855
:1030C000001F016070470C4A121D0029116801D0D1
:1030D000014300E08143116070474FF0E021042874
:1030E000086903D020F004000861704740F0040034
:1030F000FAE700000000FA050CED00E080FFFF1F7A
:103100008F4910B5884206D10121042000F0DDFB73
:10311000002104203BE08B49884206D10121082090
:1031200000F0D3FB0021082031E08749884206D116
:103130000121102000F0C9FB0021102027E0834965
:10314000884206D10121202000F0BFFB0021202071
:103150001DE07F49884206D10121402000F0B5FBE7
:103160000021402013E07B49884206D101218020C4
:1031700000F0ABFB0021802009E0774988420AD1AA
:1031800084150121204600F0A0FB00212046BDE867
:10319000104000F09ABB10BD10B50121084600F0A8
:1031A00094FB0021BDE81040012000F08EBBF0B57B
:1031B000CC78002204F00F03E40601D58C78234379
:1031C0000C784FF00F0C14F0FF0F4FF0010E1BD0D6
:1031D00005680E880EFA02F42640A64210D1960029
:1031E0000CFA06F725EA070703FA06F5CE783D4301
:1031F000282E02D0482E02D002E0446100E0046193
:10320000521C082AE5D305600A88FF2A1CD94468A5
:10321000002202F108060EFA06F50E882E40AE4294
:103220000ED196000CFA06F7BC4303FA06F7CE78E7
:103230003C43282E00D14561CE78482E00D105614F
:10324000521C082AE5D34460F0BD4FF6FF7101809F
:10325000022181700421C1707047024600209268EB
:103260000A4200D001207047806880B27047024651
:103270000020D2680A4200D001207047C06880B2A6
:10328000704701617047416170470AB10161704741
:1032900041617047C160704741F480328261816151
:1032A00082618169806970472C4B10B51A684FF6AE
:1032B0008074224042EA00100843186010BD28497B
:1032C000C8617047F0B5254C002801DAE36900E0D9
:1032D0006368450D2E0185B2C0F30157B540C0F3B8
:1032E0000342032F05D0C6020AD503269640B343F6
:1032F00007E023F07062636823F07063636002E0AC
:10330000AB4343F0706201B12A43002801DAE26165
:10331000F0BD6260F0BD10B58A0721F003040F49CB
:10332000120F21440F238C6893409C438C608B6860
:10333000904003438B6010BD0949C1F8DC00704721
:1033400000080140000C0140001001400014014041
:1033500000180140001C0140002001400000014015
:1033600000002042C44910B588420AD101218C03D3
:10337000204600F0AAFA2046BDE81040002100F0E7
:10338000A4BABE49884202D101214C0410E0BC49D4
:10339000884202D101218C040AE0BA49884202D154
:1033A0000121CC0404E0B84988420AD101210C056E
:1033B000204600F093FA2046BDE81040002100F0BE
:1033C0008DBA10BD30B50446008A85B00D464CF666
:1033D000FF710840E98801432182A0894EF6F3116C
:1033E0000840A9882A8911436A8902431143A181AF
:1033F000A08A4FF6FF410840A9890143A18268468F
:1034000000F006FA9C48844201D1039800E002983B
:10341000A189090400EBC00101EB0010296801D566
:10342000490000E08900B0FBF1F06422B0FBF2F14A
:1034300009010B096FF018056B4300EB8300A389AA
:103440001D044FF0320306D503EBC000B0FBF2F0D1
:1034500000F0070005E003EB0010B0FBF2F000F015
:103460000F000843208105B030BD4FF416510160B4
:1034700000218180C18001810C22428181817047BD
:1034800010B5028A4FF2FF031A400B884C88234381
:103490008C88C9880C4323431343038210BD002149
:1034A000018041808180C18070470029818902D0DC
:1034B00041F4005101E021F400518181704710B5C1
:1034C000C1F3421301F01F040121A140012B07D0D9
:1034D000022B07D01430002A026805D00A4304E00A
:1034E0000C30F8E71030F6E78A43026010BD002A7E
:1034F000828A01D00A4300E08A4382827047028AAE
:1035000022F00F020282028A0A43028270478289F5
:1035100022F40062828182890A43828170470029F5
:10352000818902D041F0020101E021F00201818194
:103530007047028A22F020020282028A0A43028233
:1035400070470029018A02D041F4804101E021F452
:10355000804101827047C1F30801818070478088F3
:10356000C0F308007047818941F0010181817047F3
:10357000028BD2B20283028B42EA0121018370479F
:10358000028B02F47F420283028B0A43028370475C
:103590000029818A02D041F0200101E021F02001C0
:1035A000818270470029818A02D041F0100101E038
:1035B00021F01001818270470029818A02D041F0F8
:1035C000080101E021F0080181827047002981890A
:1035D00002D041F4004101E0C1F30E018181704746
:1035E0000029818A02D041F4006101E021F40061E8
:1035F00081827047828A22F004028282828A0A4390
:10360000828270470029818A02D041F0020101E0E4
:1036100021F00201818270470246002012880A428E
:1036200000D001207047C9430180704770B501F098
:103630001F0501260024C1F3421306FA05F2012BEF
:103640000FD0022B0FD0838A4FEA1121008813423A
:1036500006FA01F600EA060001D000B10124204676
:1036600070BD8389F0E7038AEEE70A0A01219140E1
:10367000C943018070470000003801400044004009
:1036800000480040004C004000500040A548016840
:1036900041F0010101604168A34A114041600168A5
:1036A000A24A11400160016821F480210160416853
:1036B00021F4FE0141604FF41F0181607047994978
:1036C0000A6822F480320A600A6822F480220A60C2
:1036D000B0F5803F07D0B0F5802F03D1086840F4E3
:1036E000A02008607047086840F48030F9E703467E
:1036F000002059098B4A01290AD002290AD0516AAF
:1037000003F01F02012393400B4200D001207047B9
:103710001168F5E7116AF3E718B500204FF4A064CB
:1037200000903120FFF7E3FF0099491C0091A1426E
:1037300001D00028F5D03120FFF7D9FF002800D0B4
:10374000012018BD774A116821F0F80141EAC00054
:1037500010607047764908607047724B5A6808439A
:1037600022F47C1210435860704771490866704714
:103770006C4A516821F00301014351607047694868
:10378000406800F00C007047664A516821F0F00173
:10379000014351607047634A516821F4E06101437D
:1037A000516070475F4A516821F4605141EAC0009E
:1037B000506070475B4A0029517A01D0014300E014
:1037C0008143517270475A49C1F8D8007047554A31
:1037D000516821F440410143516070475149002232
:1037E00081F8202081F82020012802D0042802D16D
:1037F000052081F8200070474E490860704749490C
:103800000A6A02430A6270474A49443908607047AD
:1038100030B5444A5168484B11F00C0103D00429DB
:1038200001D0082901D0036012E05168536801F407
:1038300070114FF0020413F4803F04EB914102D069
:1038400053689B0301D53D4B00E03B4B594301605E
:1038500051680F2303EA1111394B5C5C0168E140A8
:1038600041605468072505EA14241C5D21FA04F41C
:103870008460546805EAD4241B5DD940C160526855
:10388000032303EA92322E4B1B1F9A5CB1FBF2F129
:10389000016130BD234A0029516901D0014300E094
:1038A0008143516170471F4A0029916901D001434A
:1038B00000E08143916170471A4A0029D16901D023
:1038C000014300E08143D1617047164A0029D16865
:1038D00001D0014300E08143D1607047114A0029C3
:1038E000116901D0014300E0814311617047114922
:1038F0004039086070470E49C86470470949C8716B
:1039000070470848416A41F0807141627047054A3A
:103910000146002092680A4200D001207047014908
:1039200088727047001002400000FFF8FFFFF6FEAB
:10393000000042428004424200127A0000093D0029
:10394000CC000020F94910B5884202D10121C414ED
:1039500086E0B0F1804F09D0F54988420DD10121B0
:103960000220FFF7BBFF0021022064E0012108468E
:10397000FFF7B4FF002101205DE0EE49884206D147
:1039800001210420FFF7AAFF0021042053E0EA49A7
:10399000884206D101210820FFF7A0FF002108205E
:1039A00049E0E649884206D101211020FFF796FF41
:1039B000002110203FE0E249884206D10121202069
:1039C000FFF78CFF0021202035E0DE49884202D13C
:1039D0000121441444E0DC49884202D10121CC0495
:1039E0003EE0DA49884202D101210C0538E0D8498D
:1039F000884202D101214C0532E0D649884206D1E5
:103A000001214020FFF76AFF0021402013E0D24946
:103A1000884206D101218020FFF760FF002180202D
:103A200009E0CE4988420AD1841501212046FFF7DA
:103A300055FF00212046BDE81040FFF74FBFC849A1
:103A4000884202D101210C040AE0C649884202D111
:103A500001214C0404E0C44988420AD101218C04AC
:103A60002046FFF732FF2046BDE810400021FFF757
:103A70002CBF10BD30B50288AC4CB24DA0420DD069
:103A8000A8420BD0B0F1804F08D0A94B984205D086
:103A9000A84B984202D0A84B984203D122F0700361
:103AA0004A881A43A54B984206D0A54B984203D0AA
:103AB00022F44073CA881A4302808A8882850A8861
:103AC0000285A0420AD0A84208D0A54A904205D05B
:103AD000A44A904202D0A44A904201D1097A0186B8
:103AE0000121818230BD30B5028C22F001020284B6
:103AF000028C8388048B22F0020224F073050C8868
:103B00002C430D8915434A882A43884DA8420BD07F
:103B10008C4DA84208D0924DA84205D0914DA842A4
:103B200002D0914DA8420DD122F008054A8923F414
:103B300040732A4322F004058A882A438D891D4355
:103B4000CB892B4383800483C9888186028430BD5E
:103B500070B5028C22F010020284028C8388048BE0
:103B60000D8824F4E6464FF6FF7404EA0525354334
:103B70000E8922F0200204EA061616434A8804EA57
:103B800002123243694EB04202D06E4EB04215D19D
:103B900022F080064A8923F4406304EA0212324389
:103BA00022F040068A8804EA021232438E8904EA2F
:103BB00086061E43CB8904EA83033343838005834F
:103BC000C9880187028470BD70B5028C22F48072AE
:103BD0000284028C8388848B0D8824F0730425432F
:103BE0000E894FF6FF7422F4007204EA062616438B
:103BF0004A8804EA022232434C4EB04202D0514E6F
:103C0000B04215D122F400664A8923F4405304EAF5
:103C10000222324322F480668A8804EA0222324376
:103C20008E8904EA06161E43CB8904EA0313334344
:103C300083808583C9888187028470BD70B5028CBA
:103C400022F480520284058C8288838B0C8823F4B2
:103C5000E6464FF6FF7303EA0424344325F4005686
:103C60000D8903EA053535434E8803EA06362E43AF
:103C70002E4DA84202D0334DA84205D122F48045F2
:103C80008A8903EA82122A4382808483C988A0F841
:103C90004010068470BD828B22F440628283828B46
:103CA0004FF6FF7303EA01210A4382837047828B38
:103CB00022F00C028283828B0A4382837047028B3C
:103CC00022F440620283028B4FF6FF7303EA012164
:103CD0000A4302837047F0B5048C24F01004048476
:103CE000078B048C4FF6FF7527F4734705EA0333FF
:103CF0003B4305EA02221A430C4B05EA011698429F
:103D00000ED0104B98420BD0B0F1804F08D0084B2A
:103D1000984205D0074B984202D0074B984225D1D4
:103D200024F02001314341F0100124E0002C014037
:103D30000004004000080040000C0040001000405B
:103D40000014004000340140004C0140005001408C
:103D50000054014000180040001C004000200040BA
:103D600000400140004401400048014024F0A0030D
:103D70000B4343F0100102830184F0BD028B22F05B
:103D80000C020283028B0A430283704770B5048CD5
:103D900024F001040484058B048C4FF6FF7606EAB8
:103DA0000313134325F0F305F84A2B4390420ED03A
:103DB000F74A90420BD0B0F1804F08D0F54A9042BC
:103DC00005D0F54A904202D0F44A904202D124F044
:103DD000020201E024F00A020A4342F001010383D7
:103DE000018470BD2DE9F84F0D4604460888E74F61
:103DF000DFF89CC3DFF89C83DFF89C934988AA888E
:103E00002B894FF0804A48B304282FD04FF6FF7615
:103E10000828934632D0208C9E4620F4805020847F
:103E2000A38B208C06EA0132009223F4734306EA46
:103E30000B221A4306EA0E331343BC420AD06445F0
:103E400008D0544506D0444504D04C4502D0D34A4E
:103E5000944242D120F40050009940E02046FFF700
:103E600095FFE9882046BDE8F84F87E72046FFF731
:103E700032FFE9882046BDE8F84F20E7208C20F487
:103E800080702084B4F81CE0208C06EA031306EA54
:103E900001222EF0F30E43EA0B0343EA0E030092D5
:103EA000BC420AD0644508D0544506D0444504D0ED
:103EB0004C4502D0B94A944203D120F400700099D5
:103EC00001E020F42060084340F48070A383208444
:103ED000E9882046BDE8F84FE9E620F402400843AF
:103EE00040F48050A3832084E9882046BDE8F84F41
:103EF000D1E62DE9F0410C46002649880746012508
:103F000001B90226A288012A00D10225208823892E
:103F10000028384610D0FFF7DEFEE1883846FFF76C
:103F2000CEFE23892A4631463846FFF72FFFE18827
:103F30003846BDE8F04121E7FFF728FFE188384621
:103F4000FFF71CFF23892A4631463846FFF7C3FE98
:103F5000E1883846BDE8F041B1E610B50A884B88E3
:103F6000CC881A438B8823431A430B891A434B8905
:103F700089891A430A43A0F8442010BD4FF6FF7107
:103F8000818000210180C180418001727047002141
:103F9000018041808180C180018141818181C18115
:103FA000704700210180418001228280C18001810F
:103FB00070470021018041808180C1800181418161
:103FC000818170470029018802D041F0010101E0A0
:103FD00021F0010101807047002930F8441F02D010
:103FE00041F4004101E0C1F30E0101807047002A55
:103FF000828901D00A4300E08A438281704781822E
:1040000070471143A0F848107047002A828901D0F8
:104010000A4300E08A4382817047018921F0070149
:1040200001817047028922F070020A4302817047C1
:1040300000B50346FFF7F6FF188940F00700188126
:1040400000BD70B516460D46602904464FF00102CA
:1040500031460AD0FFF79AFE29462046FFF7E2FFD5
:10406000208940F00700208170BDFFF734FEF3E7A0
:1040700030B504894FF6FF7505EA03231343E4B214
:104080000B432343038130BD10B50446FFF7F0FF17
:10409000208940F07700208110BD10B50446FFF75D
:1040A000E7FF208940F48040208110BD0185828295
:1040B0007047028822F070020A430280704770B590
:1040C0000589048B068C25F007050D434FF6FC414E
:1040D0000C4040F201110C434FF6FF7101EA03114D
:1040E00026F022061143314305810483018470BD0B
:1040F000028B22F070020A4302837047028B4FF654
:10410000FF7322F4E04203EA012111430183704767
:10411000828B22F070020A4382837047828B4FF6B3
:10412000FF7322F4E04203EA0121114381837047C7
:104130000029018802D041F0800101E021F08001D6
:10414000018070470029818802D041F0040101E01C
:1041500021F00401818070470029818802D041F05C
:10416000080101E021F00801818070470029818861
:1041700002D041F0010101E021F00101818070478E
:10418000028B22F008020A4302837047002C014090
:10419000003401400004004000080040000C0040D2
:1041A000028B4FF6FF7322F4006203EA01211143F0
:1041B0000183EAE7828B22F008020A438283E4E764
:1041C000828B4FF6FF7322F4006203EA0121114350
:1041D0008183DAE7028B22F004020A430283D4E7E8
:1041E000028B4FF6FF7322F4806203EA0121114330
:1041F0000183CAE7828B22F004020A438283C4E768
:10420000828B4FF6FF7322F4806203EA012111438F
:104210008183BAE7028B22F080020A430283B4E76B
:10422000028B4FF6FF73C2F30E0203EA0121114322
:104230000183AAE7828B22F080020A438283A4E7EB
:10424000828B4FF6FF73C2F30E0203EA0121114382
:1042500081839AE7028C22F002020A43028494E7E7
:10426000028C22F008020A4302848EE7028C4FF689
:10427000FF7322F0200203EA01111143018484E755
:10428000028C4FF6FF7322F0800203EA0111114302
:1042900001847AE7028C4FF6FF7322F4007203EA7E
:1042A00001211143018470E7028C4FF6FF7322F461
:1042B000006203EA01211143018466E7028C4FF694
:1042C000FF7322F4005203EA0131114301845CE7D9
:1042D00010B50123048C8B409C430484038C8A40DA
:1042E0001343038410BD10B50423048C8B409C43FE
:1042F0000484038C8A401343038410BD30B5012429
:10430000058C00F118038C40A543058489B1082968
:104310000FD0091FC1F34E001844016821F4E04199
:10432000016001684FF6FF7303EA02221143016046
:1043300030BD03EB5100016821F07001016001689C
:10434000F4E70029018802D041F0020101E021F0E8
:104350000201018019E70029018802D041F004011F
:1043600001E021F0040101800FE70029818802D0DB
:1043700041F0800101E021F08001818005E70288A1
:1043800022F00802028002880A430280FDE6828849
:1043900022F07002828082880A438280F5E60289D8
:1043A00022F00702028102890A430281EDE60289B6
:1043B00022F08002028102890A430281E5E68184BB
:1043C000E3E68185E1E68186DFE60187DDE6818738
:1043D000DBE6A0F84010D8E6028822F440720280A2
:1043E00002880A430280D0E6808ECEE6008FCCE6BB
:1043F000808FCAE6B0F84000C7E6808CC5E6008D25
:10440000C3E602460020128A0A4200D00120BCE620
:10441000C9430182B9E602460020138A92890B4201
:1044200002EA010202D0002A00D00120ADE6C94311
:104430000182AAE601684FF6FE7211400160002178
:10444000016041608160C1606A496A4A08399042EE
:1044500003D1486840F00F0006E0664A14329042EB
:1044600004D1486840F0F00048607047614A283243
:10447000904203D1486840F47060F5E75D4A3C32F1
:10448000904203D1486840F47040EDE7594A5032F9
:10449000904203D1486840F47020E5E7554A643201
:1044A000904203D1486840F47000DDE7514A783209
:1044B000904203D1486840F07060D5E74E4A111F22
:1044C000904203D1086840F00F0006E04A4A1432D7
:1044D000904204D1086840F0F00008607047464AF6
:1044E0002832904203D1086840F47060F5E7424AF0
:1044F0003C32904203D1086840F47040EDE73E4AF8
:1045000050329042EAD1086840F47020E5E730B5B7
:10451000026847F6F0739A430C6A8B682343D1E92B
:1045200004452C4323438C692343CC6923434C6AC1
:1045300023438C6A234313430360CA6842600A68BA
:1045400082604968C16030BD0021016041608160C6
:10455000C160016141618161C16101624162816249
:1045600070470029016802D041F0010102E04FF6D6
:10457000FE72114001607047002A026801D00A43B0
:1045800000E08A430260704741607047406880B233
:10459000704702460020D10002D51749083901E0D2
:1045A000144908390968114200D001207047C10040
:1045B00003D51149091F086070470E490839486042
:1045C000704702460020D10002D50B49083901E0AE
:1045D000084908390968114200D001207047C1001C
:1045E00003D50549091F086070470249083948602A
:1045F000704700000800024008040240C54910B599
:10460000884202D1012144150AE0C349884202D1FF
:104610000121041504E0C14988420AD10121CC03DB
:104620002046FFF752F92046BDE810400021FFF771
:104630004CB910BD10B54268B94B0C791A400B68E3
:1046400042EA0422134343608268B64B1A40D1E920
:10465000024323434C7942EA440213438360C26A13
:10466000097C22F47002491EC9B242EA0151C162BA
:1046700010BD00210160017141718160C1600121A3
:10468000017470470029816802D041F0010101E006
:1046900021F00101816070470029816802D041F456
:1046A000807101E021F4807181607047002A4268C6
:1046B000C9B201D00A4300E08A4342607047816872
:1046C00041F00801816070470146002089680907B0
:1046D00000D501207047816841F004018160704776
:1046E000014600208968490700D50120704700294C
:1046F000816802D041F4A00101E021F4A0018160B1
:104700007047014600208968490200D501207047A2
:104710004268491E22F4604242EA413141607047DA
:104720000029416802D041F4006101E021F40061F8
:104730004160704770B5072609290AD9C568A1F1FB
:104740000A0404EB4404A640B543A3401D43C560DE
:1047500007E0056901EB4104A640B543A3401D43B2
:1047600005611F23072A09D2446B521E02EB820205
:1047700093409C4391400C43446370BD0D2A09D281
:10478000046BD21F02EB820293409C4391400C4386
:10479000046370BDC46A0D3A02EB820293409C43ED
:1047A00091400C43C46270BD0029816802D041F47D
:1047B000801101E021F4801181607047C06C80B2EB
:1047C000704754484C30006870470029416802D057
:1047D00041F4806101E021F480614160704700296B
:1047E000416802D041F4805101E021F480514160E0
:1047F0007047826822F4E0420A43826070470029D1
:10480000816802D041F4004101E021F4004181605F
:1048100070470029816802D041F4021101E021F4BF
:10482000021181607047014600208968890200D525
:104830000120704770B5072609290AD9C568A1F17A
:104840000A0404EB4404A640B543A3401D43C560DD
:1048500007E0056901EB4104A640B543A3401D43B1
:104860000561836BC3F30154121B921C02EB82029D
:104870001F249440A34391400B43836370BD826B1C
:10488000491E22F4401242EA01518163704708B583
:1048900008440090026008BD08B508442830009024
:1048A000006880B208BD42681F4B1A400A4342604C
:1048B0007047416282627047426822F01F020A43D9
:1048C00042607047134908310028086802D040F45C
:1048D000000001E020F4000008607047024600205C
:1048E00012680A4200D001207047C9430160704736
:1048F00010B50246002054680B0AC9B20C4011687A
:10490000194202D0002C00D0012010BD6FEA112105
:10491000016070470024014000280140003C014034
:10492000FFFEF0FFFDF7F1FFFFFD3FFF00B585B093
:104930006846FEF76DFF019805B000BD10B5FFF7A2
:10494000F5FF11490A6842F080720A600F4900229F
:104950004A600A6842F001020A60BDE8104000F0B7
:1049600075B80A484068704710B50446FFF7DEFF87
:104970000021074A0B4606F019FE02460B46204668
:10498000002106F013FE10BDFCED00E0001000E079
:1049900040420F0010B500F0DFF8044610216948CE
:1049A00000F0D8F92046BDE8104000F0D9B86649BB
:1049B00010B500200860FFF7C1FFBDE81040E9E72F
:1049C000FEE770B505460C000ED075B100F0C4F8D6
:1049D000064610225B49284600F0C4FC304600F031
:1049E000BFF80020208070BDFEE70A20088070BD5F
:1049F00070B50C00054612D095B1102100F0A4FC52
:104A0000102810D200F0A8F80646102229464D487A
:104A100000F0A8FC304600F0A3F8002005E0FEE717
:104A20000A20088070BD4FF47A70208070BDFFF7B7
:104A300098BF7047020004D04348006810B10021BD
:104A400002E0FEE74FF4FA61118070473E490860CA
:104A5000704710B500F08BF8183810BD10B500F095
:104A600086F8103810BD00F082B8F0B50C0E0B0CB3
:104A70000D0A0026354AD0F1FF378E411BD24FF682
:104A8000FF76D0F1FF378E410AD26FF07F45D0F12B
:104A9000FF308D4101D2105DF0BDD05C0830F0BD1B
:104AA000FF23D0F1FF308B4102D2505D1030F0BDBA
:104AB000505C1830F0BD4FF6FF740023241A8B4170
:104AC00011D26FF07F440023241A8B4105D2000ECF
:104AD00040EA0120105C2030F0BD000C40EA0140AB
:104AE000105C2830F0BD0023D0F1FF048B4105D2CB
:104AF000000A40EA0160105C3030F0BD105C3830D4
:104B0000F0BD08B100F036B80820704708B100F0D9
:104B100031B81020704708B100F02CB82020704741
:104B200000B550EA01020BD0C243521CCB4343F103
:104B3000000310401940FFF798FFC0F13F0000BD8F
:104B4000402000BD63200020DC0000209CDD000828
:104B500072B6704762B67047EFF3108072B6704756
:104B600080F31088704730BF704720BF7047B0FA9D
:104B700080F0704790FAA0F0B0FA80F0704790FA99
:104B8000A0F07047A0F14101192902D96138192814
:104B900001D80120704700207047A0F14101192978
:104BA00005D92039192902D93038092801D801201E
:104BB0007047002070476138192801D801207047DC
:104BC000002070474138192801D801207047002083
:104BD00070473038092801D80120704700207047FD
:104BE0003038072801D80120704700207047A0F115
:104BF0003001092905D91139052902D9613805285B
:104C000001D80120704700207047202803D00928D0
:104C100001D0002070470120704720280BD00D28BC
:104C200009D00A2807D00C2805D0092803D00B2862
:104C300001D0002070470120704720385E2801D83D
:104C4000012070470020704721385D2801D80120DD
:104C5000704700207047A0F120015E2916D8202857
:104C600014D00D2812D00A2810D00C280ED00928F4
:104C70000CD00B280AD021391A2907D320391A2938
:104C800004D330380A2801D3012070470020704730
:104C900041B2002901DB1F2803D97F2801D0002061
:104CA000704701207047A0F14101192900D8203038
:104CB000C0B27047A0F16101192900D82038C0B2F4
:104CC000704700B50B46FFF7F5FF02461846FFF7A1
:104CD000F1FF824201D1012000BD002000BD000093
:104CE000FD48FE490246C0E9001200218160C16012
:104CF000016141618161C16101620163C16241621F
:104D000000F148018163C1634FF480610164416433
:104D1000F3480260704710B500231C46641C41EA4A
:104D20000323042CFAD310F0030404D109E0521E2B
:104D300000F8011B641C22B1042CF8D301E008C068
:104D4000121F042AFBD202E000F8011B521E002AA7
:104D5000FAD110BD0A460021DDE730B4814202D904
:104D600030BC00F0C5BD10441144401E491E431A1A
:104D7000042B28D300F0030301F00304A34201D164
:104D8000012400E00024F4B1032B07D109E05B1EED
:104D900011F8014900F801495BB2521E0AB1002B1B
:104DA000F5DAC01EC91E04E051F8043940F8043990
:104DB000121F042AF8D2C01CC91C04E011F80139E2
:104DC00000F80139521E002AF8D130BC704770B586
:104DD000034662B16BB161B113441144012003F089
:104DE000030401F00305AC4205D1012504E00120D4
:104DF00070BD002070BD0025DDB1BCB113F8015DB0
:104E000011F8016DB54200D00020521E641E012829
:104E1000F0D1002AF1D109E053F8044D51F8045DB6
:104E2000AC4200D00020121F01280AD1042AF3D27C
:104E300007E013F8014D11F8015DAC4200D00020ED
:104E4000521E0128D6D1002AF3D170BD30B5C36BF4
:104E5000B3FBF2F402FB14340CB1121B00E000228D
:104E6000446C11448C4201D2002030BD5D18611A9F
:104E7000C5631A444164104630BD10B5B0FBF3F46D
:104E800003FB140000B1181AB2FBF3F403FB142463
:104E90000CB11B1B00E0002310441A44491E02FB06
:104EA000010010BD2DE9FC5F1F4614008A468346B1
:104EB00000D101AC0020884E2060FFF74DFE00902D
:104EC00053465A460121D6F84480F06BFFF7D5FFD0
:104ED000054642F2E279404506D90098FFF740FEC8
:104EE000A5EB0800206012E0524659463046FFF715
:104EF000ADFF0600009807D0FFF732FE42F21070B7
:104F000038803046BDE8FC9FFFF72AFE2560A7F8F1
:104F100000900020F6E72DE9F04116460D460446C4
:104F2000FFF71AFE6368996B01B96B4BDF6B5C6C22
:104F3000FFF716FE012D06D9B7FBF5F005FB107043
:104F400000B1281A241A42F2107030802046BDE8C1
:104F5000F0810A4601466048DDE7B8B1614A026067
:104F6000002242608260C260026142618261C2616D
:104F70000262826242630263C26242628263C2630D
:104F80000264426442F210700880704742F211706D
:104F9000FAE72DE9FF4F89B08A46DDE91879044622
:104FA00007B906AF0020386049462046FFF7D5FF15
:104FB000B9F80010A1F51C50103859D148480068C4
:104FC00090B10020DFF810810290FFF7C5FD059039
:104FD000BAF100000BD002460B9800261318404887
:104FE000B3465B1E056848E042F2E7713EE0D8F840
:104FF0003C1003910423C34645461A460C99039876
:10500000FFF73BFF0399049008440890DDE916235D
:105010000C99FFF732FF0090009904984646084427
:105020000290D8F844100191884261D90598FFF7A1
:1050300097FDDDE901103CE0A86B504506D1D5F89D
:1050400040C00B998C4501D12E4618E0296C0144D3
:10505000491E834213D3824203D98B4201D98A422B
:1050600009D80598FFF77CFD42F27F71A9F800107E
:105070000DB0BDE8F08FAB46ED68002DDCD136B940
:10508000C4E90EAA0B9820640B982646606404239A
:105090001A46D8F83C000C99FFF7EFFE0490D8F8B8
:1050A00044100191884206D90598FFF759FD0199EE
:1050B0000498401A34E0F06B0890DDE916230C994F
:1050C000FFF7DBFE0090716C0191884210D90598C2
:1050D000FFF746FD08E000007420002048454150DD
:1050E000E00000204E4F4E45DDE90001401A46E049
:1050F0000C9804228000014601904046FFF7A6FE6E
:10510000039008B100201CE0D8F844400598FFF750
:1051100027FDBAF1000F07D00198A04200D9001B6B
:10512000386042F2E27054E00298F6E7DDE91612C8
:105130003046FFF78BFE90B1039941F8280008F143
:1051400001000C9980468842F0D3A64220D1C4E9E0
:1051500002B55FEA0B0016D0CBF80C4015E0F56BFA
:10516000746C0598FFF7FCFC0C98DDE91623A0EBA6
:1051700008012846FFF781FEA04200D9001B3860D5
:1051800042F2D87025E06E4804603DB1AC6005E0A5
:105190007069C4E90460746100B104616948C4E9DC
:1051A00000060898A061009908980844401EE06134
:1051B000039820620098A062179860631698206395
:1051C0000C98E0620C9860620598FFF7C9FC42F207
:1051D0001070A9F800004BE770B50D460446FFF7C4
:1051E000BBFC646AFFF7BCFC42F2107028802046CA
:1051F00070BD70B515460446FFF7AEFC616A49B153
:10520000E26A91420BD9FFF7ABFC42F2957028801D
:10521000002070BDFFF7A4FC42F2DE70F7E7491EE4
:105220006162226A52F82140FFF79AFC42F2107044
:105230002880204670BD70B514460E460546FFF71F
:105240008BFCEA6A911B491E42F295768A4202D98A
:105250006A6A8A4204D9FFF783FC2680002070BD69
:105260002A6A52F82150FFF77BFC42F2107020802E
:10527000284670BD2DE9F04116460D460446FFF75D
:105280006BFCE76A626A8446BA4204D3FFF768FCA3
:1052900042F2DD701EE04FF0000E1346206A04E07B
:1052A00050F82310A94205D05B1C9F42F8D8BEF1EC
:1052B000000F03D050F8221040F82310D4E9080161
:1052C00040F82150606A401C60626046FFF748FC6D
:1052D00042F2107030803AE62DE9F04115460E4654
:1052E00004464FF0FF37FFF737FC0246E16A606A79
:1052F000884205D31046FFF733FC42F2DD701CE014
:105300004FF0000C05E0236A53F82030B34205D07B
:10531000401C8142F7D8BCF1000F09D00C1A10468E
:10532000641EFFF71DFC42F21070288020460EE636
:105330001046FFF715FC42F288702880384606E6D2
:10534000E0000020504F4F4C002201E0401C521C56
:1053500018B103780BB18A42F8D3104670474FF06A
:10536000FF31F1E730B5002811D089B103460024A0
:1053700005E0491C03F8015B641C4BB141B10D7899
:105380000DB19442F5D3944201D20021197030BD81
:10539000002030BD4FF0FF32E4E730B5002816D0D2
:1053A000B1B1002A13D0034601E05B1C10D01C7879
:1053B000002CFAD104E0491C03F8015B641C3BB1EA
:1053C00031B10D780DB19442F5D30021197030BD83
:1053D000002030BD4FF0FF32DFE7F0B532B330B11F
:1053E00011B304460B46401C491C002508E0E9B1F6
:1053F00008784042F0BD401C491C5B1C641C6D1CBD
:1054000026781F78BE4204D11EB110B109B1954271
:10541000F1D395420AD0F4B2FAB2944201D0B01A54
:10542000F0BD1EB10028E2D00078F0BD0020F0BD34
:105430004FF0FF32D1E72DE9F0475FEA020A41D091
:1054400070B181B10446461C0F464D1C0078FFF731
:105450002AFC81463878FFF726FC4FF0000811E05F
:1054600079B3087829E0007821E008F1010814F800
:10547000010F6D1C761C7F1CFFF715FC81463878E8
:10548000FFF711FC814505D1217819B116B10DB195
:10549000D045EAD3D04515D04946814503D0A9EB84
:1054A0000000BDE8F0870800FBD026B13078BDE8E9
:1054B000F047FFF7F8BB25B12878FFF7F4FB40422F
:1054C000EFE7FFE70020ECE74FF0FF32B3E710B55E
:1054D000002812D081B1002303E0401C03F1010336
:1054E0000BD004781CB1944201D08B42F5D38B428F
:1054F00002D2E1B2914200D0002010BD0A464FF026
:10550000FF31E4E730B5154604000FD071B1491EF4
:10551000FFF71AFF20180AD000E0401EA04202D078
:105520000178A942F9D10178A94200D0002030BD0C
:105530000A464FF0FF31E5E730B5002803D00BB144
:10554000044607E0002030BD8D4200D122705B1E72
:10555000641CF8D02578002DF5D0002BF4D130BD97
:105560004FF0FF33E8E72DE9F0418C46060032D0DA
:10557000BCF1000F2FD072B3501C01D0511C01E0C0
:105580004FF0FF310D4611463046FFF7DDFE044671
:1055900029466046FFF7D8FE050014D0A5421AD868
:1055A000301911D01CEB05000ED0671B00243019F8
:1055B00080462A466146FFF710FF010006D0002012
:1055C000641C28B106E03046BDE8F0810120F7E711
:1055D000BC42ECD909B10020F6E74046F4E74FF0B1
:1055E000FF32C0E72DE9FF5F074611980E9D144674
:1055F000894600286CD00026B246B9F1000F00D1D0
:105600000126A01E232800D3012615B32846FFF744
:1056100014FB01281CD1302D1BD0A5F13000C1B2E4
:105620000F98012802D0A5F1410001E0A5F1610029
:10563000C0B20A2C02D8A14206D307E00A2903D33C
:10564000A4F10A01884201D2012000E0002000B14B
:105650000126119A56BBB846012003E0B8FBF4F8C6
:10566000401CC0B2A045F9D20399012900D0002105
:1056700000EB010CCC4518D84FF0000B4B464845C9
:1056800000D318464DB1A9EB0000401A4B4610F06C
:10569000FF0F04D0302D04D001E00844C3B2002035
:1056A00000E0012082460EB901E001264B46109928
:1056B000D01809B1002101700021401E04E056B14C
:1056C0003F2200F80129491C9942F8D39EB30020DB
:1056D00004B0BDE8F09F27B919B1039A012A16D08A
:1056E00024E0B7FBF4F204FB1272D2B20A2A01D210
:1056F000303207E0DDF83CC0BCF1010F01D0373299
:1057000000E05732B7FBF4F700F80129DBE75AEA6B
:105710000B0205D0BAF1000F08D05A1E914205D1F4
:105720002D2200F801294FF0010BCCE7002DCAD043
:1057300000F80159C7E7FFE71198C9E77FB50DF1F8
:10574000200C9CE870008DE878000023FFF74AFFEA
:1057500004B070BD2DE9FF411C46DDE90B650A9FD1
:10576000002802DA4042012300E00023CDE900478F
:10577000CDE90265FFF736FF04B025E72DE9FF5FAD
:105780001E4615465FEA0109824601D10DF108095E
:10579000C9F800A00E9808B903A80E900021017066
:1057A000BAF1000003D0012D01D0242D01D9002031
:1057B0008EE70446007801E014F8010FFFF72DFA98
:1057C0000128F9D020782B2803D02D2805D00020DF
:1057D00007E04FF0000B641C04E0012E00D1641CB4
:1057E00001208346019425B1082D11D0102D22D11E
:1057F00012E02078302801D00A251CE014F8010FAF
:10580000582803D0782801D0082514E010250CE092
:10581000207830280ED00EE0207830280BD114F8F4
:10582000010F582801D0782805D16078FFF7DFF9FB
:10583000012800D1641C0026B0460096277838461F
:10584000FFF7ABF9012824D13846FFF7C2F9012848
:105850000CD03846FFF7AFF9012809D0373FF9B22D
:10586000A94216D2B8F1000F04D00EE0303FF6E79F
:10587000573FF4E71D4850F82500B04203D306FB1C
:1058800005168E4201D24FF001080098641C0028D2
:10589000D4D0B8F1010F01D14FF0FF360198844206
:1058A00002D0C9F8004001E0C9F800A00E993046C6
:1058B00081F800B00CE708B500230093FFF75EFF06
:1058C00008BD1CB501AB00930123FFF757FF9DF8FE
:1058D00004204FF0004122B1884200D241420846E4
:1058E0001CBD8842FCD36FF000401CBD9CDE00084C
:1058F000002800D17047002900D17047002A00D14C
:1059000070472DE9F81F00F0030301F00304A342E0
:1059100011D1C3F1040303F00303012B1DD3012AAA
:1059200000D2F2E011F8014B00F8014BA3F10103A2
:10593000A2F10102F1E700F0010301F00104A3422A
:1059400000D094E0012B44D311F8014B00F8014B37
:10595000A3F10103A2F10102F4E7B2F5B47F26D36B
:10596000B1E8F81FA0E8F81FB1E8F81FA0E8F81F99
:10597000B1E8F81FA0E8F81FB1E8F81FA0E8F81F89
:10598000B1E8F81FA0E8F81FB1E8F81FA0E8F81F79
:10599000B1E8F81FA0E8F81FB1E8F81FA0E8F81F69
:1059A000B1E8F81FA0E8F81FA2F5B472D5E7282ADD
:1059B00006D3B1E8F81FA0E8F81FA2F12802F6E725
:1059C000042A06D351F8043B40F8043BA2F1040238
:1059D000F6E7202A42D331F8023B20F8023B31F8A7
:1059E000023B20F8023B31F8023B20F8023B31F841
:1059F000023B20F8023B31F8023B20F8023B31F831
:105A0000023B20F8023B31F8023B20F8023B31F820
:105A1000023B20F8023B31F8023B20F8023B31F810
:105A2000023B20F8023B31F8023B20F8023B31F800
:105A3000023B20F8023B31F8023B20F8023B31F8F0
:105A4000023B20F8023B31F8023B20F8023B31F8E0
:105A5000023B20F8023BA2F12002BAE7022A06D359
:105A600031F8023B20F8023BA2F10202F6E7102ACD
:105A700042D311F8013B00F8013B11F8013B00F85B
:105A8000013B11F8013B00F8013B11F8013B00F824
:105A9000013B11F8013B00F8013B11F8013B00F814
:105AA000013B11F8013B00F8013B11F8013B00F804
:105AB000013B11F8013B00F8013B11F8013B00F8F4
:105AC000013B11F8013B00F8013B11F8013B00F8E4
:105AD000013B11F8013B00F8013B11F8013B00F8D4
