:020000040800F2
:10000000B80C012059920008D9090008DB09000842
:10001000DD090008DF090008E10900080000000010
:10002000000000000000000000000000E3090008DC
:10003000E509000800000000AB610108698F0008B5
:10004000739200087392000873920008B9100008B8
:10005000739200087392000873920008739200086C
:10006000739200087392000873920008739200085C
:10007000739200087392000873920008739200084C
:10008000739200087392000873920008739200083C
:10009000739200087392000873920008739200082C
:1000A000739200087392000873920008739200081C
:1000B00073920008739200080F4E010873920008B3
:1000C00073920008739200087392000873920008FC
:1000D00073920008C3910008E94C0108F51B000861
:1000E00073920008739200087392000873920008DC
:1000F00073920008739200087392000873920008CC
:1001000073920008739200087392000873920008BB
:100110001F3B00087392000873920008553B0008CB
:10012000739200087392000873920008739200089B
:10013000DFF80CD015F04AFE00480047C104000863
:10014000B80C01200EB502AD082405F0CAFE07F078
:100150007EFD0022C82311461046CDE900450FF070
:100160009EFFF2E70EB502AE0827CDE90076012228
:100170004FF49673114600200FF091FFDFF80084D2
:10018000DFF800944FF0010A4FF0000BFE4D98F895
:1001900003004446012805D104F090FE84F80BA02A
:1001A00005F078FA99F803004C46012805D16978E2
:1001B000287807F00CFE84F803B00022CDE9007621
:1001C0004FF49673114610460FF069FFDFE70EB546
:1001D00002AD08244FF4967604F0F4F808F01DF808
:1001E0000022334611461046CDE900450FF057FF77
:1001F000F2E70EB502AD08244FF4967614F04DFCEC
:1002000002F0DEFF01F0C8F8002233461146104626
:10021000CDE900450FF043FFF0E70EB502AD08242D
:100220000023012219461846CDE900450FF037FF9B
:10023000F6E70EB5D34C0125DFF844A3D34EDFF823
:1002400050B300270DF108084FF00809207920B9B4
:100250000A21CBF800102571657103F0C1FC05F08F
:10026000EAFE24E0C6F8A0516079012808D10022F6
:1002700007231146104602F066FCC64807706771F6
:1002800003F0AEFC03F06BFD03F0AAFD04F01EFDCD
:100290009AF8030008B98AF80350C6F8A071002242
:1002A000CDE90098C823114610460FF0F8FEDBF8A0
:1002B00000000028D6D0CDE9009800214FF49673B5
:1002C000012208460FF0EBFEC0E77CB50A200AF0D9
:1002D000AEFC040022D0AB4DAFA16878401CC2B286
:1002E0006A70204615F0A2FF01A8009000230A22A0
:1002F0002146AC480EF03FF8BDF8040000280DD0B0
:1003000020460AF08DFCA748002201AB1146303090
:1003100010F0D9F9287810B1002028707CBD012098
:10032000FBE72DE9F0438BB00AF0E7FC09A80EF0DB
:1003300074FB012109AA08460BF039FF0AF0B2FD4F
:10034000DFF8649299F80010491C89F800100AF04F
:10035000ADFD09AA95A19A480DF0C5F9984809AADA
:1003600098A12C300DF0BFF98E4809AB01229AA15B
:1003700030380DF062FD09AB042299A189480DF0D7
:100380005CFD09AD0024AFF2BD000221CDE90010F3
:1003900084483223224695A13030CDE902450FF042
:1003A000C2FF0326CDE90646924904204FF4807728
:1003B0004FF01908089505940023AFF289128DE8D3
:1003C00003018C48CDE903748BA1C4380EF0BBFD4A
:1003D000CDE906468B491620089505940023AFF217
:1003E000C5128DE803018748CDE9037486A1C4389E
:1003F0000EF0A9FDCDE90646780033210895CDE938
:100400000210854A0C200594CDE9000204940023D3
:10041000AFF22122804881A1C4380EF094FDCDE9CD
:10042000064683490D20089505940023AFF261220A
:100430008DE803017E48CDE903747EA1C4380EF037
:1004400082FDCDE9064680490E20089505940023DB
:10045000AFF2EF228DE803017B48CDE903747BA165
:10046000C4380EF070FDCDE906467C490F20089592
:1004700005940023AFF233328DE803017748CDE9CC
:10048000037477A1C4380EF05EFD0AF00BFD99F8F5
:100490000010491E11F0FF0189F8001007D17449BE
:1004A000098821B10AF002FD0CF0F6F901E00AF02A
:1004B000FDFC09A900200EF027FE0BB0BDE8F0837B
:1004C00070B58CB008F05EFD4FF4A06008F0D6FE69
:1004D00008F035FE01F04FFB07F0A2FC4FF49670D8
:1004E00008F095FD4FF4614003F040FA002401222A
:1004F0004FF4165311462046009414F031FA14F0CC
:10050000B0FA06F065FB00F0B5FB00F0CFFB00F0A1
:100510004DFC10F0EFFA0AF015FB05E0C82008F0DA
:1005200076FD54A015F072FE01F036F90028F5D1E1
:1005300010F0E0FA5248012252A1006812F0AEF821
:1005400005E051A015F062FEC82008F060FD0BAA7E
:100550000AA951A010F05AFB0028F2D10B98820A88
:100560000A98810A4DA015F051FE00F03BFD50485D
:100570008378427801788DE80E00C379827999E01A
:100580009349002000000020A00200200000224229
:10059000F401002001020020414C49454E54454BD6
:1005A00020256400EC2900205C0300204F53556196
:1005B000727434557365645F4D757465780000001E
:1005C000080600204F5349324331557365645F4D2F
:1005D00075746578000000004B4559204D73670025
:1005E00044415441204D736700000000746D723126
:1005F00000000000E80900204D61696E20746173FD
:100600006B000000AC0E00204B657970726F636563
:100610007373207461736B0070130020636F6D6DD2
:10062000756E69636174696F6E207461736B00002D
:10063000341C002063616C6962726174696F6E20A2
:100640007461736B00000000F82000205761726E27
:10065000536574207461736B00000000BC2500209A
:100660005265636F726444617461207461736B00DE
:1006700020030020736420696E6974206572720023
:10068000D0030020303A0000464154465320696EA2
:10069000697420657272000030000000746F74612C
:1006A0006C3D25642C20667265653D25640D0A004D
:1006B000502A00208188B4A015F0A8FD02F036FF72
:1006C00041F2883008F0A3FC002007F009FA07F097
:1006D000BEFA07F039FB002207231146104602F04C
:1006E00032FAB14DB14AB24E2C70146154611369A3
:1006F0006520584306EB8001506941F82040401CBA
:1007000050617828F8DB5B1C1361082BEEDBEE20D0
:1007100001F04DFAB12001F04AFA002001F047FA49
:10072000002001F044FA0A2001F041FA0421A14816
:1007300001F04AFA002004F089FF01E003F050FACA
:1007400005F080FC0028F9D106F0CBF908F0C8FAD2
:10075000002207231146012002F0F5F92C704FF416
:10076000FA6008F054FC09A80BF0B7FB0AF09AFBFA
:10077000914D2978491C29700AF098FB09A903209A
:1007800005940694CDE907018C4B80210C22CDE91C
:100790000003CDE9022104940023AFF27942874897
:1007A00087A1C4380EF0CFFB0AF07CFB2978491EE4
:1007B00011F0FF01297007D18449098821B10AF09D
:1007C00075FB0CF069F801E00AF070FB09A80BF06A
:1007D000AAFD0CB0002070BD1FB5002503AC082693
:1007E000CDE90054002202AB114679480DF040FCDF
:1007F0000AF016FA0023CDE90064012219461846D2
:100800000FF04DFCECE730B500240BB2002B19DBE8
:100810008B18642B16D8654BDB88C91A634B09B259
:1008200018330CE033F811502D0A00F8015B13F86F
:100830001150491C521E00F8015B09B292B2002A05
:10084000F0D100E00124204630BDF0B500240DB207
:10085000002D39DB8D18642D36D8544DA44605F192
:10086000E0072E89891B09B283B15A4E012B2CD186
:1008700023E037F811301B0A00F8013B17F811305C
:10088000491C521E00F8013B09B292B2002AF0D175
:1008900085F802C019E010F8013B1B0227F811305F
:1008A00010F801EB43EA0E0327F8113009B986F876
:1008B00000C0491C521E09B292B2002AEBD17170DD
:1008C0000120A870E87000E001242046F0BD2DE969
:1008D000F04100270EB2054614B2002E2CDB88181A
:1008E000102829D89BB1012B27D122E0082C01DD4B
:1008F000082000E02046C2B22C48B1B20A3014F001
:1009000012F8083C083605F8010B24B236B2002C68
:10091000ECDC12E015F8013B082C01DD082000E0BA
:100920002046C2B22148B1B20A3013F0E3FF083CBE
:1009300024B2002CEEDC00E001273846BDE8F0814F
:100940002DE9F0410546002708B214B2002818DB53
:100950008818102815D80E4610E0082C01DD082054
:1009600000E02046C2B2114831460C3013F0DBFFE4
:10097000083C083605F8010B24B2B6B2002CECDCBA
:1009800000E001273846D9E725642D253032642D53
:100990002530326420253032643A253032643A25DD
:1009A0003032643B0D0A00000102002000000020EC
:1009B000243C00207C7601085C03002024070020F2
:1009C0007374617274207461736B000020030020E3
:1009D000EC290020A00200207047FEE7FEE7FEE7BA
:1009E000FEE77047704700000CB500224C480092AB
:1009F0000192016841F4803101604FF4A063016805
:100A000001F4003101910099491C0091019911B93B
:100A100000999942F3D10168890333D501210191ED
:100A200040490A6842F010020A600A6822F0030294
:100A30000A600A6842F002020A6041684160416847
:100A40004160416841F480614160416821F47C115A
:100A50004160416841F4E8114160016841F08071F2
:100A6000016001688901FCD5416821F00301416002
:100A7000416841F0020141604168C1F381010229EE
:100A8000FAD10CBD01920CBD254810B5016841F0AA
:100A9000010101604168244A114041600168234A14
:100AA00011400160016821F480210160416821F456
:100AB000FE0141604FF41F018160FFF795FF1C4963
:100AC0004FF00060086010BD154A10B55068194B12
:100AD00010F00C01184803D0042901D0082901D0D6
:100AE000036012E05168536801F470114FF0020482
:100AF00013F4803F04EB914102D053689B0301D56E
:100B00000E4B00E00B4B5943016051680A4AC1F398
:100B10000311121D515C0268CA40026010BD000042
:100B200000100240002002400000FFF8FFFFF6FE28
:100B300008ED00E000127A00A801002000093D0045
:100B40002DE9F047494C05462146207889684FF049
:100B50007E58012837D026696661A06914F062FCCE
:100B6000E061304614F02CFF16F056FD06460F46A5
:100B7000606814F025FF32463B4614F0CEFD14F0B9
:100B800032FF01466062A06914F04CFC0146E06946
:100B900014F0D2FC364EA66220622846616914F039
:100BA00093FC20F00040314614F044FF46D2216A05
:100BB00040460F4614F088FC294614F08BFC06468C
:100BC0003846616940E04FF080402561C4E9055036
:100BD00014F028FCE061284614F0F2FE16F01CFD2B
:100BE00006460F46606814F0EBFE32463B4614F0B2
:100BF00094FD14F0F8FE01466062A06914F012FC46
:100C00000146E069074614F097FC206261690646D8
:100C10008946284614F058FC314614F05BFC4946DE
:100C200014F000FC20613146404614F04DFC39467A
:100C300014F050FCA0610020207013E06169284688
:100C40000E4614F041FC216A14F044FC314614F0C5
:100C5000E9FB20614046216A14F036FCE16914F09A
:100C600039FCA0612846E560BDE8F087BC010020A2
:100C70000000C04038B50121502008F02AFF4FF491
:100C80008074ADF8004010208DF803000320064D5D
:100C90008DF802006946284608F09FFB2146284649
:100CA00008F007FC38BD00000010014008B5012124
:100CB000442008F00EFF1C20ADF8000048208DF8FD
:100CC00003006946364808F088FB0120ADF80000B3
:100CD00028208DF803006946324808F07EFB08BDE5
:100CE0002DE9F041304C2F4F2D4D012608B12670D3
:100CF00001E02078A0B11021284608F0C4FBB0B173
:100D00000821284608F0BFFB88B10421284608F0D6
:100D1000BAFB60B10121384608F0B5FB012806D0C6
:100D20001021284608F0AFFB012824D035E00A2026
:100D300008F06DF9002020701021284608F0A3FB70
:100D400080B10821284608F09EFB70B10421284696
:100D500008F099FB58B10121384608F094FB0128AE
:100D600007D01AE00120BDE8F0810220FBE7032054
:100D7000F9E70420F7E70821284608F084FB01285A
:100D80000BD10421284608F07EFB012805D1012162
:100D9000384608F078FB00B926700020E3E7000031
:100DA0000018014000080140E801002038B5012189
:100DB000082008F08EFE4FF48074ADF8004010203B
:100DC0008DF803000320064D8DF802006946284681
:100DD00008F003FB2146284608F06BFB38BD0000F5
:100DE000000C014030B56423B0FBF3F4B0FBF3F525
:100DF000E4B203FB1500132C01D96430C0B200EB40
:100E000090030724B3FBF4F504FB1533C24D1A44D9
:100E10000D44800715F8015C2A4492B203D10329DE
:100E200001D2521E92B2B2FBF4F004FB102030BD8E
:100E300081070CD16421B0FBF1F201FB120141B931
:100E40004FF4C871B0FBF1F201FB120008B10020B1
:100E50007047012070472DE9F04108F0A0FEDFF84F
:100E6000BCC20546B0FBFCF3AD48AE4E418899428A
:100E700030D0438040F2B2744FF4B7774FF4B67875
:100E80000FE02046FFF7D4FF38B1BB4202D3A3F5F1
:100E9000B77304E0641CA4B205E0A3F26D13641CF4
:100EA000A4B24345EDD8B4809B4F00240C370BE02F
:100EB000B088FFF7BDFF08B1012C2ED0385D9842F5
:100EC00004D81B1A641CA4B21C2BF1D2641CB4718C
:100ED0005B1CF371B5FBFCF00CFB10504FF461612F
:100EE000B0FBF1F23270B0FBF1F201FB12033C22D5
:100EF000B3FBF2F37370B0FBF1F301FB1300B0FB33
:100F0000F2F102FB1100B070F279B179B088FFF70D
:100F100069FF30720020BDE8F0811D2BD6D31D3B48
:100F2000D0E72DE9F05F99460546DDE90AAB0023DD
:100F3000A0F2B27090468C46822802D30120BDE810
:100F4000F09F40F2B274784E784F08E02046FFF7E9
:100F50006FFF08B1334400E03B44641CA4B2AC42D0
:100F6000F4D3ACF1010C6C4F0CF0FF0600240C37ED
:100F7000DFF8A8C10EE0385D40F2A321484303EB3F
:100F8000C0132846FFF754FF10B1012C00D1634471
:100F9000641CA4B2B442EED340F2A32108FB01F0DA
:100FA0005E4903EBC01049420144C9EB4912C2EB50
:100FB000092001EB0011CAEB0A1001EB800000EBE5
:100FC0000B0401214FF0C05008F08CFD012008F007
:100FD00063FE204608F0ECFD08F01CFEFFF73BFF27
:100FE0000020ACE77CB50024042008F0C8FE45F2E0
:100FF0005005A84246D001214FF0C05008F072FDC4
:10100000012008F049FE08F091FE012008F0FCFCE8
:1010100004E0641CE4B20A2007F0F9FF412008F064
:101020007CFC0028F5D0FA2C01D301207CBD4FF4C4
:10103000807008F0FAFC012008F0FCFC08F0EAFDE2
:1010400008F0EEFD0121084608F092FD08F0E2FDEF
:1010500008F097FD47F6FF7008F0B7FD08F0DAFDDD
:1010600037210E20CDE9000103230A220C2140F292
:10107000D970FFF756FF08F08BFD2946042008F0D1
:1010800077FE07E008F0CCFD0121084608F070FD6E
:1010900008F0C0FD03208DF8000000208DF801004D
:1010A0008DF8020001208DF80300684608F0EBF887
:1010B000FFF7D1FE00207CBD70B5012008F0C9FD0E
:1010C000E0B1FFF7C8FE164D686808B1401E6860C1
:1010D000A86808B1401EA8602C887CB1144800782C
:1010E000012809D1134E1449B068096814F09AF91F
:1010F000B060E868401CE860641E2C80022008F0A4
:10110000A8FD10B1022008F0B2FD052008F0AFFDE7
:10111000BDE8704008F07EBD647601088051010092
:10112000EC010020502A00200085E2018033E1011B
:101130002E020020AC490020400200202DE9FF5F74
:1011400000260446039602960078B346B146B2469E
:1011500052287DD160785428FBD1A0784328F8D15B
:10116000E0785F28F5D120795328F2D160794528BD
:10117000EFD1A0795428ECD1E0792828E9D10825CD
:10118000605D3038092863D8C5F10B0014F0B4FB5A
:1011900002460B460020BC4915F052FD0746605D33
:1011A0008846303814F0A8FB43463A4614F0B5FAA6
:1011B00007468846304614F0B0FB43463A4614F0E2
:1011C00005FA14F0E4FB6D1CEDB286B20C2DD7D3FA
:1011D0000D25605D30380928D5D8C5F10E0014F012
:1011E0008BFB02460B460020A74915F029FD8046DF
:1011F000605D0F46303814F07FFB42463B4614F0EA
:101200008CFA07468846039814F087FB3A46434613
:1012100014F0DCF914F0BBFB6D1CC0B2EDB203900E
:101220000F2DD6D31025605D30380928ABD8C5F115
:10123000110014F061FB02460B460020924915F0A4
:10124000FFFC0746605D8846303814F055FB00E02F
:1012500097E043463A4614F060FA074688465846F7
:1012600014F05BFB3A46434614F0B0F914F08FFBE0
:101270006D1CEDB200F0FF0B122DD4D31325605D71
:10128000303809287DD8C5F1140014F035FB02462A
:101290000B4600207C4915F0D3FC0746605D88466C
:1012A000303814F029FB3A46434614F036FA074624
:1012B0008846029814F031FB3A46434614F086F90A
:1012C00014F065FB6D1CC0B2EDB20290152DD6D3A3
:1012D0001625605D303809285CD8C5F1170014F078
:1012E0000BFB02460B460020674915F0A9FC074698
:1012F000605D8846303814F0FFFA43463A4614F0F1
:101300000CFA07468846484614F007FB3A4643461F
:1013100014F05CF914F03BFB6D1CEDB200F0FF091A
:10132000182DD6D31925605D3038092832D8C5F17B
:101330001A0014F0E1FA02460B460020524915F05B
:101340007FFC0746605D8846303814F0D5FA3A468F
:10135000434614F0E2F907468846504614F0DDFA99
:101360003A46434614F032F914F011FB6D1CEDB20D
:1013700000F0FF0A1B2DD6D3CDE9009A5A4630461D
:1013800000E007E0DDE90231FFF7CBFD002004B00B
:10139000BDE8F09F0120FAE7F0B591B04021684622
:1013A00013F0ACFD394D2878012843D100272F7068
:1013B0003C466E4606E02819C07813F080FD305593
:1013C000641CE4B26878A042F5D86F70375568465F
:1013D000FFF7B4FE002830D069462DA013F0ACFD15
:1013E00000282CD069462FA013F0A6FD002829D094
:1013F000694630A013F0A0FD002825D0694631A031
:1014000013F09AFD354C002823D0694634A013F020
:1014100093FD38B3694637A013F08EFD50B369468B
:1014200037A013F089FD50B338A014F0EFFE3CA0B4
:1014300014F0ECFE11B00020F0BD3BA0F8E706F080
:1014400028F9F7E7012316E0012319E001F07BFBFF
:10145000F0E7012202231146104601F074FB01203F
:101460002070E7E7002202231146104601F06BFBD3
:101470002770DFE70423012211461046E6E7042324
:10148000002211461046E1E700002440E64C00200F
:101490004655434B494E475F594F555F524541446E
:1014A000000000004B5541494D454E5F4F50454EA1
:1014B000000000004B5541494D454E5F434C4F5392
:1014C0004500000043414C4942524154494F4E5659
:1014D000414C56455F4F50454E0000000102002030
:1014E00053414D504C494E4756414C56455F4F5025
:1014F000454E0000504D545F4F50454E00000000D7
:10150000504D545F434C4F5345000000434F4D4DE9
:10151000414E44204953204E4F54200D0A000000F4
:10152000405F400D0A0000002053657474696E67C7
:101530002054696D65206F6B200D0A0000F050BAD1
:10154000382000F0B4BA082000F0B1BA38B5012153
:10155000102008F0BEFA0320ADF8000010218DF82D
:101560000310FC4C8DF802006946204607F035FF59
:101570000321204607F09BFF00F058FAF6490120AE
:10158000C1F8840138BDF4490120C1F88401FF206D
:1015900000F026BA70B500246FF07F45FF20FFF7FA
:1015A000CDFFFF2804D0641CAC42F7D3012070BDEE
:1015B000002070BDE84910B50020C1F88401FFF794
:1015C000E9FF002802D0FFF7DEFF012010BD70B553
:1015D00005464FF6FF7401E0641EA4B2FF20FFF73A
:1015E000ADFFA84202D0002CF6D102E00CB10020E1
:1015F00070BDFF2070BD70B504460D46FE20FFF79C
:10160000E6FF28B1012070BD00F0EAF904F8010BF3
:101610006D1EADB24FF0FF00F6D200F0E1F9FF20F1
:1016200000F0DEF9002070BD70B50C460546FFF7EE
:10163000B1FF08B1012070BD204600F0D1F9FD2CAA
:1016400018D000244FF40076285D00F0C9F9641C1E
:10165000A4B2B442F8D3FF2000F0C2F9FF2000F09A
:10166000BFF9FF20FFF76AFF00F01F00052801D037
:10167000022070BD002070BD70B516460C460546B0
:10168000FFF781FFFFF796FF08B1FF2070BD45F01F
:10169000400000F0A5F9200E00F0A2F9C4F30740C5
:1016A00000F09EF9C4F3072000F09AF9E0B200F0D0
:1016B00097F9304600F094F90C2D02D1FF2000F08C
:1016C0008FF91F24FF20FFF739FF0106DED5641EC6
:1016D000E4B2F7D270BD70B50546012200210A20A0
:1016E000FFF7CAFF040004D110212846FFF783FF4B
:1016F0000446FFF748FF0CB1012070BD002070BD0B
:1017000070B50546012200210920FFF7B5FF04004E
:1017100004D110212846FFF76EFF0446FFF733FF80
:101720000CB1012070BD002070BD1FB56846FFF7E9
:10173000E7FF10B1002004B010BD9DF8001001209B
:10174000B0EB911F09D19DF808209DF8091000EB1E
:101750000220084400048009EDE79DF805009DF88B
:101760000A1000F00F0000EBD1109DF809109DF851
:10177000072001F0030100EB41019DF808008009FA
:1017800000EB82009DF8062002F0030200EB8220AD
:10179000401CC91F8840CEE72DE9F843FFF7D6FE6D
:1017A000382000F084F90024FF2000F019F9641CAF
:1017B000A4B20A2CF8D31424002195220846FFF77E
:1017C0005BFF0546012802D0641EA4B2F4D2634E2A
:1017D0000027012D37707AD187224FF4D571082068
:1017E000FFF74AFF4FF6FE7801281ED001220021A4
:1017F0003720FFF741FF012200212920FFF73CFF9E
:1018000001284FD8022030704446012200213720A1
:10181000FFF732FF012200212920FFF72DFF0500ED
:101820004DD0641EA4B2F0D249E000246F46FF20E0
:10183000FFF784FE3855641CA4B2042CF7D39DF83E
:101840000200012843D19DF80300AA283FD1444655
:101850004FF08048012200213720FFF70DFF0122C1
:1018600041462920FFF708FF050002D0641EA4B2FC
:10187000F0D2B4B1012200213A20FFF7FDFE80B979
:101880000024FF20FFF75AFE3855641CA4B2042C34
:10189000F7D39DF80000400601D5062000E00420A3
:1018A000307014E0012030704446012200211046BF
:1018B000FFF7E2FE050002D0641EA4B2F5D22CB1FF
:1018C000012251021020FFF7D7FE00B13770FFF759
:1018D0005AFE082000F0EBF8307810B10020BDE887
:1018E000F8830DB12846FAE7AA20F8E72DE9F04180
:1018F00006461A4815460078062800D049024FF4DB
:101900000077012D4FF0010219D01220FFF7B4FE2D
:1019100039463046FFF76FFE6D1E044606F5007629
:1019200015F0FF0501D0002CF2D0012200210C207F
:10193000FFF7A2FEFFF727FE2046BDE8F081112049
:10194000FFF79AFE0400F5D139463046FFF753FE03
:101950000446EFE70010014000002242FC01002095
:1019600070B506461D4815460C460078062800D07E
:101970004C02012D13D0012809D00122002137206B
:10198000FFF77AFE012229461720FFF775FE012294
:1019900021461920FFF770FE04000AD01AE0012248
:1019A00021461820FFF768FE040013D1FE213046BF
:1019B0000DE0FC213046FFF737FE6D1E06F5007680
:1019C00015F0FF0501D00028F3D0FD210020FFF71E
:1019D0002BFE0446FFF7D7FD204670BDFC0100201A
:1019E00070B506460024384D03E0641CE4B2C82CF0
:1019F0000FD80221284609F069F80028F5D03146B1
:101A0000284609F01FF8002405E0641CE4B2C82C45
:101A100001D9002070BD0121284609F057F800289F
:101A2000F3D0284609F010F8C0B270BD38B50121D6
:101A300041F2080008F04DF80121084608F049F885
:101A40000121224807F054FD0121084607F050FD0E
:101A50003824ADF8004018208DF8030003208DF8DD
:101A6000020069461A4807F0B8FC3821194807F007
:101A70001EFD194800214FF482720180428081804E
:101A80000222C28001220281520242818481C181EC
:101A9000072101820C4C0146204608F02FFF01214E
:101AA000204608F0A7FFFF20FFF79AFF38BD10B5CA
:101AB0000949054C8881204608F020FF2046BDE8F2
:101AC0001040012108F096BF0030014000023000B4
:101AD000000C0140000801407A2A002038B501219D
:101AE000082007F0F6FF4FF48060ADF800001820E2
:101AF0008DF8030003204C4C8DF802006946204607
:101B000007F06BFCE114ADF8001004218DF8031010
:101B10006946204607F061FC38BD1FB501218804E5
:101B200007F0E0FF4FF4165000900020ADF80400DD
:101B3000ADF80600ADF80800ADF80C000C20ADF8CB
:101B40000A006946394807F053FD1FBD08B5272034
:101B50008DF8000003208DF8010002208DF80200AE
:101B600001208DF80300684607F08DFB08BD304961
:101B700000208870704770B5FFF7CFFFFFF7AEFF0A
:101B8000FFF7E4FF2A490020284D887040F22554D1
:101B90002146284607F07FFE01222146284607F00D
:101BA000A4FD2846BDE87040012107F094BD10B5A2
:101BB0001E4C0146204607F0E4FD8021204607F038
:101BC00041FE0028F9D010BD2DE9F0410D46064632
:101BD0000024164F0AE0315D384607F0D2FD80211F
:101BE000384607F02FFE0028F9D0641CAC42F2D32F
:101BF000BDE8F08170B50AF001FA0C4C40F22555B1
:101C00002946204607F028FE48B12946204607F01D
:101C100042FE204607F0B9FDC0B206F009F9BDE862
:101C200070400AF0F6B90000000C01400048004086
:101C30008C2A002070B5C54D0024C5F8884190203D
:101C400005F5C475FFF7CCFE0020FFF7C9FE0020A4
:101C5000FFF7C6FE0020FFF7C3FEFF20FFF7C0FE20
:101C600044EA0024FF20FFF7BBFE20430121296046
:101C700070BD38B50121042007F02BFF1C20ADF802
:101C8000000010208DF803000320B14C8DF80200F5
:101C90006946204607F0A1FB1C21204607F007FCFF
:101CA000FFF7C4FE0820FFF702FFFFF7C3FFA949B3
:101CB000088038BD10B5A54C0020C4F88801052067
:101CC00004F5C474FFF78CFEFF20FFF789FE0121A5
:101CD000216010BD70B59D4C00210546C4F88811E7
:101CE000012004F5C474FFF77BFE2846FFF778FE59
:101CF0000120206070BD10B5944C0020C4F888010C
:101D0000062004F5C474FFF76BFE0120206010BDAF
:101D100010B58E4C0020C4F88801042004F5C4746A
:101D2000FFF75EFE0120206010BD2DE9F041874FD6
:101D30000646002015460C46C7F888010320FFF729
:101D40004FFEC4F30740FFF74BFEC4F30720FFF735
:101D500047FEE0B2FFF744FE002405E0FF20FFF756
:101D60003FFE3055641CA4B2AC42F7D30120C7F843
:101D70008801BDE8F08110B5FFF79CFFC007FBD1DB
:101D800010BD2DE9F04115460C460646FFF7B3FF9E
:101D90006E4F0020C7F888010220FFF721FEC4F330
:101DA0000740FFF71DFEC4F30720FFF719FEE0B25E
:101DB000FFF716FE002404E0305DFFF711FE641CFF
:101DC000A4B2AC42F8D30120C7F88801BDE8F041C5
:101DD000D1E72DE9F0410746C8B2C0F580740E4640
:101DE0001546A24200D814464FF480782246314668
:101DF0003846FFF7C6FFA542BBD0281B2744264420
:101E000085B24446A542F1D82C46EFE7B1E770B55C
:101E10000403FFF770FFFFF7AEFF4C4D0020C5F83D
:101E20008801202005F5C475FFF7DAFDC4F30740EB
:101E3000FFF7D6FDC4F30720FFF7D2FDE0B2FFF7AE
:101E4000CFFD01202860BDE8704094E72DE9F05FE8
:101E5000C1F30B060F0BC6F5805489468046154624
:101E6000A24200D81446DFF8F0A039038B464FF4A5
:101E700080523948FFF759FF002006E032181AF85F
:101E80000210FF2903D1401C80B2A042F6D3A04229
:101E900021D23846FFF7BBFF0020524605E018F874
:101EA00000108319401CD15480B2A042F7D3594688
:101EB0004FF480522848FFF78CFFA5420FD0281B13
:101EC000A044A144002685B24FF480547F1CA54253
:101ED000CBD82C46C9E7224649464046EBE7BDE849
:101EE000F09F10B5FFF707FFFFF745FF174C0020E5
:101EF000C4F88801C72004F5C474FFF771FD012000
:101F00002060BDE8104036E710B5104C0020C4F842
:101F10008801B92004F5C474FFF762FD0120206038
:101F2000BDE81040032007F053B810B5074C00205F
:101F3000C4F88801AB2004F5C474FFF751FD0120FB
:101F40002060BDE81040032007F042B800002142A5
:101F500000080140FE0100200F2B00207047704751
:101F60007047FE482AB1012A05D0022A06D0032173
:101F700002E0002100E00121017070470221FBE72F
:101F80007047704770472DE9FE4F134689468046DB
:101F9000002701AAF2A11846019712F0E5FFDFF829
:101FA000C4B3F14EF14DA9F1020A02ACB8F10C0F25
:101FB0002BD2DFE808F02A064DD22A2AF32AF22A89
:101FC0002AF14846B9F1070F21D00B2826D0B9F1E4
:101FD0000C0F1AD10AF012F801985C46CBF81400E5
:101FE000294613F077FA13F0A5FC0146082004F007
:101FF00070FF6761082004F0C8FF13F06FFC2946EA
:1020000013F09AFA60610AF004F8BDE8FE8F0199B6
:10201000CBF80010D64901204875F6E709F0EEFF2D
:1020200001985C46CBF81000294613F053FA13F0E0
:1020300081FC0146002004F04CFF2761002004F0E1
:10204000A4FF13F04BFC294613F076FA2061DAE77F
:10205000C84FC94D4FF48078BAF1080F7DD2DFE840
:102060000AF0043A48568D9EC0CE019813F07BFCCE
:1020700026F8090F00231A461946C04800940BF0B1
:1020800073FC3188C82004F024FF02AA0021BB4859
:102090000BF0C1FDC82004F078FF3080D02004F0A0
:1020A00074FFB070D82004F070FFF070E02004F0EE
:1020B0006CFF06F8010C36F8021B42F21070414327
:1020C00016F8010B00EBC00202EB001001EB8000E0
:1020D00016F80C194FE0019813F045FCF07200233C
:1020E0001A461946A54800940BF03EFCF17AD02020
:1020F0001AE0019813F037FC307300231A46194692
:102100009E4800940BF030FC317BD8200CE0019805
:1021100013F029FC307200231A46194697480094A0
:102120000BF022FC317AE02004F0D3FE02AA002159
:1021300092480BF070FDC82004F027FFA6F80900B4
:10214000D02004F022FFF072D82004F01EFF30737C
:10215000E02004F01AFF307200E083E0B6F80910C6
:1021600042F210704143F07A00EBC00202EB001023
:1021700001EB8000317B0844386073E0019813F074
:10218000F2FBF08100231A4619467C4800940BF0BC
:10219000EBFBF189E8200FE0FDE31CE2DCE00198B5
:1021A00013F0E1FB307400231A461946734800947B
:1021B0000BF0DAFB317CF02004F08BFE02AA002148
:1021C0006E480BF028FDE82004F0DFFEF081F020DF
:1021D00004F0DBFE3074F82004F0D7FE7074404643
:1021E0002FE0019813F0BFFB707400231A461946C4
:1021F000624800940BF0B8FB717CF820DCE7019892
:1022000013F0B1FB707300231A4619465B48009423
:102210000BF0AAFB717B4746404604F05AFE02AA27
:10222000002156480BF0F7FCE82004F0AEFEF081E8
:10223000F02004F0AAFE3074F82004F0A6FE7074BA
:10224000384604F0A2FE7073F18942F210704143E7
:10225000307C00EBC00202EB001001EB8000717CCF
:10226000084428605046464F464D4FF498784FF446
:102270009C7A082870D2DFE800F0044097BFFDFB8D
:10228000FAF9019813F06FFB26F8130F00231A4692
:1022900019463A4800940BF067FB31884FF4847775
:1022A000384604F016FE02AA002134480BF0B3FCB5
:1022B000384604F06AFE30804FF4887004F065FE02
:1022C000B0704FF48C7004F060FEF0704FF49070BA
:1022D00004F05BFE06F8010C36F8021B42F21070A7
:1022E000414316F8010B00EBC00202EB001001EBBA
:1022F000800016F8161908442860019813F033FB83
:10230000707500231A4619461C4800940BF02CFBEC
:10231000717D4FF48874204604F0DBFD02AA002191
:1023200016480BF078FC4FF4847004F02EFEA6F8EB
:102330001300204604F029FE70754FF48C7004F0F1
:1023400024FEB0754FF4907004F01FFEB074B6F820
:10235000131042F2107017E021E00000000200208C
:102360002566000044490020502A002000007A44DD
:10237000934900209002002094020020340600209F
:102380009C020020980200204143707D00EBC002B7
:1023900002EB001001EB8001B07D08442860B9F128
:1023A000070F7FF43AAE32E6019813F0DCFAB0750D
:1023B00000231A461946F94800940BF0D5FAB17D6E
:1023C0004FF48C74204604F084FD02AA0021F348E7
:1023D0000BF021FC4FF4847004F0D7FDA6F8130035
:1023E0004FF4887004F0D1FD7075204604F0CDFDE7
:1023F000B0754FF4907026E0019813F0B4FAB07401
:1024000000231A461946E54800940BF0ADFAB17C5A
:102410004FF49074204604F05CFD02AA0021DF48CE
:102420000BF0F9FB4FF4847004F0AFFDA6F8130035
:102430004FF4887004F0A9FD70754FF48C7004F0AF
:10244000A4FDB075204604F0A0FDB074B6F81310DA
:1024500042F210704143707D00EBC00202EB0010AD
:1024600001EB8000B17D08442860CEE57DE057E0B7
:1024700020E0FFE7019813F076FA308300231A4634
:102480001946C64800940BF06FFA318B4FF49474E0
:10249000204604F01EFD02AA0021C0480BF0BBFB41
:1024A000204604F072FD3083404604F06EFDB076A5
:1024B000504654E0019813F056FAB07600231A46BD
:1024C0001946B64800940BF04FFAB17E4446404698
:1024D00004F0FFFC02AA0021B0480BF09CFB4FF473
:1024E000947004F052FD3083204604F04EFDB07627
:1024F000504604F04AFDF0764FF4A07004F045FD1C
:10250000F075318B42F210704143B07E00EBC00297
:1025100002EB001001EB8000F17E0844386076E5A4
:10252000019813F020FAF07600231A4619469B48CA
:1025300000940BF019FAF17E5446504604F0C9FCA1
:1025400002AA002195480BF066FB4FF4947004F04A
:102550001CFD3083404604F018FDB076204604F0A0
:1025600014FDF0764FF4A07023E0019813F0FBF90E
:10257000F07500231A461946884800940BF0F4F9C8
:10258000F17D4FF4A074204604F0A3FC02AA0021C0
:1025900082480BF040FB4FF4947004F0F6FC30835B
:1025A000404604F0F2FCB076504604F0EEFCF076C3
:1025B000204604F0EAFCF075318B42F21070414382
:1025C000B07E00EBC00202EB001001EB8000F17E58
:1025D0000844386019E5724E4846B9F11F0F7BD0A8
:1025E0005BDC0F2879D03FDC092878D014DC022886
:1025F00062D0B9F1050FEDD109F000FD019846F860
:10260000020F294612F066FF13F094F901462620C6
:1026100004F05FFC262028E10A2871D0B9F10D0FE3
:10262000D8D1019846F8260F00231A4619465B4870
:1026300000940BF099F93068294612F04BFF13F023
:1026400079F901465E2004F044FC5E2004F09DFC14
:1026500013F044F9294612F06FFF306002AA0021FE
:102660004E480BF0D8FAD0E4112869D012287ED059
:102670001A2855D0B9F11B0FACD109F0BFFC019855
:1026800046F8120F294612F025FF13F053F90146C0
:10269000462004F01EFC4620E7E0A9F120001028A7
:1026A00098D2DFE800F0AB080808C108D208F2F0C1
:1026B00008EFEE08EDECA8E409F0A0FC019846F85C
:1026C000060F294612F006FF13F034F901461E20CA
:1026D00004F0FFFB1E20C8E07AE063E0FFE709F0AA
:1026E0008DFC019846F80E0F294612F0F3FE13F008
:1026F00021F901462E2004F0ECFB2E20B5E0FFE787
:1027000009F07CFC019846F80A0F294612F0E2FE17
:1027100013F010F90146362004F0DBFB3620A4E06C
:1027200009F06CFC019846F8160F294612F0D2FE0B
:1027300013F000F901463E2004F0CBFB3E2094E06C
:10274000019846F81E0F294612F0C4FE13F0F2F865
:1027500001464E2004F0BDFB4E2004F016FC13F0A1
:10276000BDF8294612F0E8FE30604EE4FFE701981C
:1027700046F81A0F00231A461946084800940BF031
:10278000F3F83068294612F0A5FE13F0D3F801469D
:10279000562004F09EFB562058E700003406002027
:1027A0000F3B0020019846F8220F00231A461946D5
:1027B000FE4800940BF0D8F83068294612F08AFEE3
:1027C00013F0B8F80146662004F083FB66203DE76D
:1027D000019846F82E0F00231A461946F348009434
:1027E0000BF0C2F83068294612F074FE13F0A2F81C
:1027F00001466E2004F06DFB6E2027E7019846F835
:102800002A0F00231A461946E84800940BF0ACF84A
:102810003068294612F05EFE13F08CF801467620EF
:1028200004F057FB762011E709F0E8FB019846F821
:10283000360F294612F04EFE13F07CF80146802038
:1028400004F047FB376080200FE009F0D7FB0198C8
:1028500046F8320F294612F03DFE13F06BF80146A0
:10286000882004F036FB3760882004F08EFB13F0DC
:1028700035F8294612F060FE3060FFF7C4BB77E000
:102880005FE047E02FE017E0FFE7019846F83E0FD2
:1028900000231A461946C54800940BF065F83068C5
:1028A000294612F017FE13F045F80146902004F077
:1028B00010FB37609020C9E6019846F83A0F0023D4
:1028C0001A461946B94800940BF04EF8306829466C
:1028D00012F000FE13F02EF80146982004F0F9FAE9
:1028E00037609820B2E6019846F8460F00231A4652
:1028F0001946AE4800940BF037F83068294612F0BC
:10290000E9FD13F017F80146A02004F0E2FA376061
:10291000A0209BE6019846F8420F00231A4619466C
:10292000A24800940BF020F83068294612F0D2FD3E
:1029300013F000F80146A82004F0CBFA3760A82075
:1029400084E6019846F84E0F00231A461946974828
:1029500000940BF009F83068294612F0BBFD12F024
:10296000E9FF0146B02004F0B4FA3760B0206DE60C
:10297000019846F84A0F00231A4619468B480094DE
:102980000AF0F2FF3068294612F0A4FD12F0D2FFDF
:102990000146B82000E004E004F09BFA3760B8205C
:1029A00054E6B9F1020F0ED0B9F1330F7FF45DADEB
:1029B000019812F0D8FF7E49C86001464FF4B0700C
:1029C00004F087FA51E5DFF8EC91DFF8ECA1019B08
:1029D00099F80000DFF8E48100EB40040AEBC40240
:1029E000401C1360C0B289F8000098F80010801EE7
:1029F000814270DC4FF4A47004F0C7FA88F800003C
:102A000046464FF4A87004F0C0FAC0B289F800003E
:102A100000EB40000AEBC000544650F8180C10F0D0
:102A2000FF4F00D127604FF4AC7004F0AEFA12F003
:102A300055FFAB46294612F07FFDE0600025A24617
:102A4000B04636E04FF4C07000EB051004F09DFA7C
:102A500012F044FF5E46594612F06EFD05EB45024A
:102A60000AEBC204E0614FF4C47000EB051004F0FF
:102A70008CFA12F033FF314612F05EFD20624FF403
:102A8000007000EB051004F080FA12F027FF3146C9
:102A900012F052FDA0614FF4027000EB051004F03B
:102AA00074FA12F01BFF314612F046FD6D1C606295
:102AB000EDB298F80000401E8542C3DB05F006FA2F
:102AC00099F80000019B00EB40040AEBC402401C93
:102AD000136089F8000099F800004D4609282DD2AE
:102AE00098F800004646092828D20024574620E0DE
:102AF000287800EB400007EBC00050F8181C04EBEE
:102B0000440007EBC000006812F08AFF0FD128785C
:102B1000401E2870204606F09CF82878019900EBAA
:102B2000400207EBC202401C116028709DE4641C47
:102B3000E4B23078401E8442DADB96E489F8007013
:102B400088F8007091E42DE9FF5F00248A461D4655
:102B500093460094019402940394D9074FF0FF0721
:102B60004FF010094FF002064FF0010832D08DF8F7
:102B700000708DF801908DF804408DF802603921C5
:102B80008DF805808DF803108DF806608DF808002B
:102B90008DF807400921684611F04EFA8DF80900BA
:102BA000000A8DF80A004FF4FA7009E0340600209C
:102BB00000020020AD020020E84B0020AC02002003
:102BC00006F025FA09F01AFA0B21684600F05DFFBD
:102BD00009F01FFAA80727D58DF800708DF801902D
:102BE0008DF804408DF8026037208DF805808DF84F
:102BF00003008DF806608DF807408DF808A00921C4
:102C0000684611F019FA8DF80900000A8DF80A00DB
:102C10004FF4FA7006F0FBF909F0F0F90B21684661
:102C200000F033FF09F0F5F9680727D58DF800703B
:102C30008DF801908DF804408DF802603B208DF8EE
:102C400005808DF803008DF806608DF807408DF83B
:102C500008B00921684611F0EFF98DF80900000A63
:102C60008DF80A004FF4FA7006F0D1F909F0C6F9B0
:102C70000B21684600F009FF09F0CBF9BDE8FF9F82
:102C800010B5EE20FEF793FFB120FEF790FF532022
:102C9000FEF78DFF0020FEF78AFF0220FEF787FF78
:102CA0000020FEF784FF0120FEF781FFBDE8104001
:102CB0000421FD48FEF788BF2DE9F04703230124D6
:102CC000FA4DFB4E0027DFF8ECA3DFF8EC834FF062
:102CD00002090E2815D2DFE800F0071F3254646D98
:102CE00077BBDAE3EFEE14ED1B290CD0B1F5977F3B
:102CF00007D1F24DF2485AB1801D03F016FF85F856
:102D00000090BDE8F087002AFBD12C712F70F8E706
:102D100003F00BFF2C70F4E7152907D0172909D011
:102D20001829EED1002AECD0EC72EAE7002AE8D0AC
:102D30002C71E6E7002AE4D06C727460E1E7122996
:102D400009D01529F2D01729DBD1002AD9D06C720D
:102D5000C6F80490D5E7002AD3D0FFF791FF30786A
:102D6000012805D038B1032808D004F020FDDFE7A2
:102D700004F0D7FCDCE704F08CFCD9E704F05DFD3F
:102D8000D6E70A2908D01529D0D01729B9D1002AA9
:102D9000B7D06C727360B4E7002AB2D004F093FD30
:102DA000C6E71529C2D01729ABD1002AA9D06C7269
:102DB000042007E01529B9D01729A2D1002AA0D0F4
:102DC0006C72052070609CE7202922D011DCBD4880
:102DD000052917D0152915D0162916D0182990D1F4
:102DE000002A8ED0EC726F72EF732F746F740760CD
:102DF00087E7212911D0232913D0322981D1E9E095
:102E00002C71F0E7002A86D0FAE7002A8DD0AC7149
:102E1000E9E7002A89D1EC7373E7002A85D12C7485
:102E20006FE7012A85D1AC736BE70122114610468A
:102E3000FFF789FE7470012006E00022114610465B
:102E4000FFF781FE77700020BDE8F04703F049BE30
:102E5000172917D09C4DE6290AD0E7299BD14FF4BA
:102E600000606AB121466973BDE8F04704F031B8EB
:102E70004FF4B47012B121462971F5E71946FBE70A
:102E80004946F0E7002A86D06C7207209AE7152998
:102E900088D0172997D1002A95D06C72082091E725
:102EA000103908298FD2DFE801F00E1F2808080426
:102EB00008093BE794E02CE028E022E7002A97D0BD
:102EC0006C7209207EE74FF0020332B100221146F6
:102ED0001046FFF738FE777013E7012211461046BF
:102EE000FFF731FE74700CE74FF001034AB1002286
:102EF00011461046BDE8F04725E64FF00403002ACE
:102F0000F5D14FF0010211461046F3E7152987D19C
:102F10000CE78E2940D012DC32295BD006DC032975
:102F200015D022292FD02329C7D17AE78C292ED07A
:102F30008D29C2D1002AC0D188F82E40E1E68F3910
:102F40000529BAD2DFE801F02D32373C4100012AD1
:102F5000B3D19AF800005D4B401CC0B28AF8000063
:102F60001978884206D100EB400008EBC00000F859
:102F7000084CC6E602D2A1F101011970A0F10100CE
:102F80008AF80000BDE6012A97D1AF73B9E6002A9E
:102F900093D188F81640B4E6002A8ED188F84640CE
:102FA000AFE6002A89D188F85E40AAE6002A84D1DB
:102FB00088F87640A5E6002A8ED188F88E40A0E6F3
:102FC000002A89D188F8A6409BE6002A84D188F897
:102FD000BE4096E6012A4FF002037FF42EAF24E7AD
:102FE000012911D00229A9D1002AA7D1012000EB83
:102FF000400108EBC1018A7D012A00D18F75401C78
:10300000C0B20828F3D37CE6002A97D198F81600BE
:10301000012809D00124554604EB440008EBC00008
:10302000817D012907D00DE088F81670BDE8F047D2
:10303000002005F074BD87752878844202D22046AE
:1030400005F06DFD641CE4B2082CE5D359E618497F
:103050000028488009D11549012248710871C873B8
:10306000087448740A701749086070472DE9FC41DC
:1030700000F00F0CDDE9096404F00F0524090009D4
:1030800000EB80000CEB400001F00F0C090904EB91
:10309000840401EB810105EB44050CEB4101044C78
:1030A000089F02F00F0C13E07C7601089349002082
:1030B00000020020AC020020E84B00202D0200207E
:1030C00080760108F0010020D84C0020AD020020DD
:1030D000120902EB82020CEB4202A560C4E9051260
:1030E0001A0903F00F0C02EB82020CEB42023B09BF
:1030F00007F00F0C06F00F0700F5FA6036092061A3
:1031000003EB830306EB86061C340CEB430307EB4F
:10311000460684E84C00ECB2F5B2CDE90054DBB2CF
:10312000D2B2C9B2FDF7FDFEBDE8FC813EB5B0F8F4
:103130000310427849BACCB2B0F805108578C3794B
:1031400049BA0D2A13DD0F2A11D0552A0FD0B12A02
:103150000ED0F72A0BD1FE488179037AC2798DE827
:103160000E0043790279C1788078FFF77FFF3EBD7A
:10317000012D0BD0103B0B2BF9D2DFE803F00B1124
:1031800006060606060606061900F0E72046BDE814
:103190003E405CE7427A03B02046BDE830408BE514
:1031A00000F1080203B02046BDE83040FEF7EBBE58
:1031B000437A027A03B02046BDE83040FEF7D1BE24
:1031C00010B54021E24804F040FE010003D0BDE804
:1031D0001040DF48AAE710BD2DE9F04FDD4E91B059
:1031E0000024B6F80920DCA10DF1040B0DF1090053
:1031F00013F01CF8F27AC5B20DF10E00D7A10F90B2
:1032000013F014F8327BC7B20DF11300D3A10E9066
:1032100013F00CF8F28900F0FF0806A8CEA10D907B
:1032200013F004F8327C00F0FF090DF11D00CBA172
:103230000C9012F0FBFF727C00F0FF0A0DF12200EF
:10324000C6A10B9012F0F2FFC6B20AA800230090AC
:103250001A461946C3480AF087FB022005F0D7FE3C
:10326000EE20FEF7A4FCB120FEF7A1FC1220FEF731
:103270009EFC0020FEF79BFC0220FEF798FC00203D
:10328000FEF795FC0220FEF792FC0020FEF78FFC73
:103290002846FEF78CFC06E00BEB04004079FEF7B5
:1032A00086FC641CE4B2AC42F6D30020FEF77FFC3F
:1032B0000320FEF77CFC0020FEF779FC3846FEF781
:1032C00076FC00245D4605E02819807AFEF76FFC45
:1032D000641CE4B2BC42F7D30020FEF768FC042073
:1032E000FEF765FC0020FEF762FC4046FEF75FFC3F
:1032F000002405E02819C07BFEF759FC641CE4B2E9
:103300004445F7D30020FEF752FC0620FEF74FFCA1
:103310000020FEF74CFC4846FEF749FC002405E07F
:103320002819007DFEF743FC641CE4B24C45F7D33A
:103330000020FEF73CFC0720FEF739FC0020FEF7DA
:1033400036FC5046FEF733FC002405E02819407E89
:10335000FEF72DFC641CE4B25445F7D30020FEF7C1
:1033600026FC0820FEF723FC0020FEF720FC304658
:10337000FEF71DFC002405E02819807FFEF717FCEE
:10338000641CE4B2B442F7D304217748FEF71CFC76
:10339000022005F03CFE6F4CB4F813206EA1AB4642
:1033A000681D12F043FF627DC5B26CA10F9812F048
:1033B0003DFFA27DC6B269A10E9812F037FF228BA5
:1033C000C7B265A10D9812F031FFA27E00F0FF0A8E
:1033D00062A10C9812F02AFFE27E00F0FF085FA1C4
:1033E0000B9812F023FF00F0FF09EE20FEF7DFFB41
:1033F000B120FEF7DCFB1220FEF7D9FB0020FEF720
:10340000D6FB0320FEF7D3FB0020FEF7D0FB022003
:10341000FEF7CDFB0020FEF7CAFB2846FEF7C7FBF0
:10342000002406E00BEB04004079FEF7C0FB641CAF
:10343000E4B2AC42F6D30020FEF7B9FB0320FEF75E
:10344000B6FB0020FEF7B3FB3046FEF7B0FB0024CE
:103450005D4605E02819807AFEF7A9FB641CE4B2FA
:10346000B442F7D30020FEF7A2FB0420FEF79FFB37
:103470000020FEF79CFB3846FEF799FB002405E090
:103480002819C07BFEF793FB641CE4B2BC42F7D35F
:103490000020FEF78CFB0620FEF789FB0020FEF7DC
:1034A00086FB5046FEF783FB002405E02819007DCB
:1034B000FEF77DFB641CE4B25445F7D30020FEF711
:1034C00076FB0720FEF773FB0020FEF770FB4046FB
:1034D000FEF76DFB002405E02819407EFEF767FB30
:1034E000641CE4B24445F7D30020FEF760FB0820DB
:1034F000FEF75DFB0020FEF75AFB4846FEF757FB40
:10350000002405E02819807FFEF751FB641CE4B21B
:103510004C45F7D304211448FEF756FB0AAA0021B4
:1035200010480AF078FB11B0BDE8F08F2DE9F047A4
:10353000C82003F02AFD074CA4F80900D02003F0AE
:1035400024FDE072D82003F020FD2073E0200DE080
:10355000613B0020502A00202564000025303264A1
:1035600000000000080600207C76010803F00DFD35
:103570002072B4F8091042F210704143E07A00EB77
:10358000C00202EB001001EB8000217B0844EB49F4
:103590000860E82003F0F9FCE081F02003F0F5FC7E
:1035A0002074F82003F0F1FC60744FF4807003F095
:1035B000ECFC6073E18942F210704143207C00EB27
:1035C000C00202EB001001EB8000617C0844DC4982
:1035D00008604FF4847003F0D8FCA4F813004FF493
:1035E000887003F0D2FC60754FF48C7003F0CDFC52
:1035F000A0754FF4907003F0C8FCA074B4F81310D9
:1036000042F210704143607D00EBC00202EB0010FB
:1036100001EB8000A17D0844CA4908604FF4947012
:1036200003F0B3FC20834FF4987003F0AEFCA07657
:103630004FF49C7003F0A9FCE0764FF4A07003F007
:10364000A4FCE075218B42F210704143A07E00EB98
:10365000C00202EB001001EB8000E17E0844BA4991
:103660000860FFF7B9FD002003F08FFC12F036F977
:10367000B64E314611F060FFB54C2061082003F0D2
:1036800084FC12F02BF9314611F056FF60611E20C8
:1036900003F07BFC12F022F9314611F04DFFAD4CE6
:1036A000C4F806002620A41C03F06FFC12F016F9E3
:1036B000314611F041FF20602E2003F066FC12F02D
:1036C0000DF9314611F038FFE060362003F05DFC63
:1036D00012F004F9314611F02FFFA0603E2003F0F4
:1036E00054FC12F0FBF8314611F026FF60614620D1
:1036F00003F04BFC12F0F2F8314611F01DFF20618F
:103700004E2003F042FC12F0E9F8314611F014FFAC
:10371000E061562003F039FC12F0E0F8314611F078
:103720000BFFA0615E2003F030FC12F0D7F83146A9
:1037300011F002FF6062662003F027FC12F0CEF861
:10374000314611F0F9FE20626E2003F01EFC12F0EB
:10375000C5F8314611F0F0FEE062762003F015FC6A
:1037600012F0BCF8314611F0E7FEA062802003F0B1
:103770000CFC12F0B3F8314611F0DEFE60638820D5
:1037800003F003FC12F0AAF8314611F0D5FE2063D5
:10379000902003F0FAFB12F0A1F8314611F0CCFEB4
:1037A000E063982003F0F1FB12F098F8314611F035
:1037B000C3FEA063A02003F0E8FB12F08FF83146AF
:1037C00011F0BAFE6064A82003F0DFFB12F086F867
:1037D000314611F0B1FE2064B02003F0D6FB12F0A8
:1037E0007DF8314611F0A8FEE064B82003F0CDFB6F
:1037F00012F074F8314611F09FFEA0644FF4A470EB
:1038000003F0C3FB544D28704FF4A87003F0BDFBC8
:103810005249087028780A2802D9062008702870B2
:103820004FF4AC7003F0B1FB12F058F8314611F0D0
:1038300083FE4B4FF8604FF4B07003F0A6FB49498C
:10384000C8604FF4B47003F0A0FBDFF81C8144465D
:1038500088F804004FF4B87003F097FB12F03EF8BC
:10386000314611F069FE20604FF4BC7003F08DFB0F
:1038700012F034F8314611F05FFEC4F809004FF43D
:10388000006003F082FB60730024A94635E04FF42A
:10389000C07000EB041003F078FB12F01FF8314603
:1038A00011F04AFE04EB440107EBC105E8614FF457
:1038B000C47000EB041003F068FB12F00FF83146FF
:1038C00011F03AFE28624FF4007000EB041003F090
:1038D0005CFB12F003F8314611F02EFEA8614FF4A4
:1038E000027000EB041003F050FB11F0F7FF3146BB
:1038F00011F022FE641C6862E4B299F80000401ED8
:103900008442C4DB04F0E2FA98F80400002544463F
:1039100002280ED025710021E62005F0BDFA607B5B
:10392000012808D065730021BDE8F047E72005F0C5
:10393000B3BA0121F0E70121F6E700009002002070
:1039400094020020980200209C02002000007A448B
:10395000444900200F3B0020AC020020AD020020B3
:10396000E84B002000020020D84C002070B505462E
:1039700086B00121102006F0ACF80121C80406F041
:10398000B1F84FF48060ADF8000003248DF80240D8
:1039900018208C4E8DF803006946304605F01DFD59
:1039A000F014ADF8000004208DF80300694630469D
:1039B00005F013FD7015ADF800008DF802401020E1
:1039C0008DF803006946304605F007FD7E4E30460F
:1039D00005F0DEFD34208DF8140002208DF815006E
:1039E00000248DF8164001208DF8170005A805F079
:1039F0004AFCADF808407014ADF80A00ADF80C4070
:103A00000C20ADF80E000195ADF8104001A930462C
:103A100005F0EEFD012240F22551304605F065FE2D
:103A20000121304605F057FE6848C0F8A44106B0B1
:103A300070BD1FB50121202006F054F82820ADF8F4
:103A400004004FF4E150ADF800000020604CADF8E8
:103A50000600ADF802006946204606F04BFA012246
:103A60001146204606F003FD01221146204606F0CD
:103A7000FEFC03208DF80D0001208DF80E008DF85E
:103A80000F0003A805F0FFFB1FBD2DE9F041DFF893
:103A90003C810E4601210746C8F8A4114FF47A7004
:103AA00005F096FA0024484D0BE04021284605F029
:103AB000C9FE0028F9D0395D284605F062FE641C75
:103AC000E4B2B442F1D34021284605F0BBFE002801
:103AD000F9D00021C8F8A411BDE8F0812DE9F0412A
:103AE000DFF8E8800D46002401210646C8F8A4113D
:103AF0004FF47A7005F06CFA334F0AE0315D3846C6
:103B000005F03FFE8021384605F09CFE0028F9D0E4
:103B1000641CAC42F2D30021C8F8A411DCE770B5F4
:103B2000294E40F225552946304605F095FE38B11C
:103B30002946284805F0AFFE304605F026FEC4B2FF
:103B400025494878402804D2CA1C84544878401C2F
:103B5000487070BD10B51E4C0121204606F09BFE3A
:103B600000280AD00121204606F0A1FE00212046AF
:103B700006F068FC19490120087010BD2DE9F047D6
:103B8000DFF854800024074698F801500E46A146FD
:103B90000C700A2005F03BFA98F80100A8420ED1FB
:103BA000002D0CD0404604E00119C9783955641C39
:103BB000E4B2AC42F8D34178317088F80190BDE8A6
:103BC000F087000000100140004C0040000022423D
:103BD0000014004000380140A13B002028020020D2
:103BE00010B586B002240020FF4A8DF81400694603
:103BF000135C0B54401CC0B20828F9D30821684656
:103C0000FFF743FF4FF4FA7005F001FA05A9F748F2
:103C1000FFF7B4FF9DF8140031287DD12F21F34820
:103C200010F00AFAF1499DF814200A4432F8022CE7
:103C3000904271D1641CEE480A5D641CC2700A5D3A
:103C4000641C82700A5D641C42700A5D027001F19E
:103C500040030268641D5A60E2B28B5C521CD2B20F
:103C6000C3708B5C521CD2B283708B5C4370521C4D
:103C7000D3B2CA5C0270A0F1500209330468DBB20F
:103C80001462CC5C5B1CDBB2C470CC5C5B1CDBB232
:103C90008470CC5C5B1CDBB24470CC5C04705B1C3D
:103CA0000468DBB29462CC5C5B1CDBB2C470CC5C9D
:103CB0005B1CDBB28470CC5C5B1CDBB24470CC5C04
:103CC00004705B1C0468DBB2D462CC5CC4705B1C07
:103CD000DBB2CC5C5B1CDBB28470CC5C5B1CDBB20B
:103CE0004470CC5C04705B1C0468DBB21463CC5C75
:103CF0005B1CDBB2C470CC5C5B1CDBB28470CC5C44
:103D00005B1CDBB24470CC5C04705B1C0468DBB2EF
:103D10005463CC5CC47000E01FE05B1CDBB2CC5C85
:103D20005B1CDBB28470CC5C5B1CDBB24470CC5C93
:103D300004705B1C0468DBB29463CC5C5B1CDBB27C
:103D4000C470CC5C5B1CDBB28470CC5C5B1CDBB2F3
:103D50004470C95C01700068D06306B010BD10B536
:103D600086B00020A0498DF814006A4608390B5C23
:103D70001354401CC0B20828F9D308211046FFF79D
:103D800084FE4FF4FA7005F042F9984805A94038CE
:103D9000FFF7F4FE9DF814000D28DED193480B21A7
:103DA000403810F049F9914C9DF81410403C2144E2
:103DB00031F8021C8842D0D1B4F8030040BA11F0A7
:103DC00096FD8B49503988648948E279C270227A1D
:103DD0008270627A4270A27A02700068C864BCE79E
:103DE0002DE9F04F8148EDB08F30002401780BA809
:103DF000699010A8689015A867901AA866901FA8E7
:103E0000659024A801AD0090012904D077488F3037
:103E10004078002877D1022005F0F9F8744F503F20
:103E2000B86B11F0CDFD02460B4672A1699812F0F5
:103E3000FDF900F0FF08786B11F0C2FD02460B4659
:103E40006CA1689812F0F2F900F0FF09386A11F0DD
:103E5000B7FD02460B4667A1679812F0E7F9C6B2B4
:103E6000786C11F0ADFD02460B4662A1669812F027
:103E7000DDF900F0FF0AF86A11F0A2FD02460B46D8
:103E80005CA1659812F0D2F900F0FF0BB86A11F04E
:103E900097FD02460B4657A1009812F0C7F9C7B22A
:103EA000EE20FDF784FEB120FDF781FE1220FDF724
:103EB0007EFE0020FDF77BFE0020FDF778FE00204F
:103EC000FDF775FE0220FDF772FE0020FDF76FFE84
:103ED0004046FDF76CFE06E0281990F82800FDF733
:103EE00066FE641CE4B24445F6D30020FDF75FFE95
:103EF0000320FDF75CFE0020FDF759FE4846FDF764
:103F000056FE002407E068E0281990F83C00FDF711
:103F10004EFE641CE4B24C45F6D30020FDF747FE8C
:103F20000420FDF744FE0020FDF741FE3046FDF77A
:103F30003EFE002406E0281990F85000FDF737FEF9
:103F4000641CE4B2B442F6D30020FDF730FE052035
:103F5000FDF72DFE0020FDF72AFE5046FDF727FE57
:103F6000002406E0281990F86400FDF720FE641C88
:103F7000E4B25445F6D30020FDF719FE0620FDF704
:103F800016FE0020FDF713FE5846FDF710FE002434
:103F900006E0281990F87800FDF709FE641CE4B2E9
:103FA0005C45F6D30020FDF702FE0720FDF7FFFD7C
:103FB0000020FDF7FCFD3846FDF7F9FD002406E082
:103FC000281990F88C00FDF7F2FD641CE4B2BC42A5
:103FD000F6D304210948FDF7F7FD04488F30007936
:103FE00001287CD1024C0BE09476010804490020A2
:103FF0007C020020252E3366000000007C7601083C
:10400000503C206AFCF79CFDFE4E2062706811F067
:10401000D7FC02460B46AFF2240106A812F006F9BF
:1040200000F0FF08E06911F0CBFC02460B46AFF24E
:104030003C01699812F0FAF800F0FF09206A11F0CB
:10404000BFFC02460B46AFF25401689812F0EEF83E
:1040500000F0FF0A606A11F0B3FC02460B46AFF2B3
:104060006C01679812F0E2F8C0B26890A06A11F093
:10407000A7FC02460B46AFF28401669812F0D6F810
:10408000C0B26990E06A11F09BFC02460B46AFF2A9
:104090009C01659812F0CAF8C0B26790206B11F0CD
:1040A0008FFC02460B46AFF2B401009812F0BEF846
:1040B000C0B26A90606B11F083FC02460B46AFF20F
:1040C000CC0129A812F0B2F8C0B26690A06B11F032
:1040D00077FC02460B46AFF2E4012EA800E06EE149
:1040E00012F0A4F8C0B26590E06B11F069FC0246D2
:1040F0000B46AFF2001133A812F098F800F0FF0B56
:10410000C148C2490068884216D0306911F058FC95
:1041100002460B46AFF2241138A812F087F8C7B256
:10412000706911F04DFC02460B46AFF238113DA804
:1041300012F07CF8C6B206E020208DF8E0000127DE
:104140008DF8F4003E466BA8002300901A461946ED
:10415000AF4809F009FC022004F059FFEE20FDF7FA
:1041600026FDB120FDF723FD1220FDF720FD0020E4
:10417000FDF71DFD0120FDF71AFD0020FDF717FDDD
:104180000120FDF714FD0020FDF711FD4046FDF76D
:104190000EFD002405E02819007DFDF708FD641CD4
:1041A000E4B24445F7D30020FDF701FD0220FDF7FE
:1041B000FEFC0020FDF7FBFC4846FDF7F8FC002460
:1041C00006E0281990F82800FDF7F1FC641CE4B221
:1041D0004C45F6D30020FDF7EAFC0320FDF7E7FC91
:1041E0000020FDF7E4FC5046FDF7E1FC002406E06A
:1041F000281990F83C00FDF7DAFC641CE4B2544541
:10420000F6D30020FDF7D3FC0420FDF7D0FC0020FE
:10421000FDF7CDFC6898FDF7CAFC002406E02819DC
:1042200090F85000FDF7C3FC641CE4B26898844227
:10423000F5D30020FDF7BBFC0520FDF7B8FC0020FE
:10424000FDF7B5FC6998FDF7B2FC002406E02819DB
:1042500090F86400FDF7ABFC641CE4B269988442FA
:10426000F5D30020FDF7A3FC0620FDF7A0FC0020FD
:10427000FDF79DFC6798FDF79AFC002406E02819DD
:1042800090F87800FDF793FC641CE4B267988442D0
:10429000F5D30020FDF78BFC0720FDF788FC0020FC
:1042A000FDF785FC6A98FDF782FC002406E02819DA
:1042B00090F88C00FDF77BFC641CE4B26A988442A1
:1042C000F5D30020FDF773FC0820FDF770FC0020FB
:1042D000FDF76DFC6698FDF76AFC002406E02819DE
:1042E00090F8A000FDF763FC641CE4B26698844279
:1042F000F5D30020FDF75BFC0920FDF758FC0020FA
:10430000FDF755FC6598FDF752FC002406E02819DE
:1043100090F8B400FDF74BFC641CE4B2659884424D
:10432000F5D30020FDF743FC0A20FDF740FC0020F8
:10433000FDF73DFC5846FDF73AFC002406E028193D
:1043400090F8C800FDF733FC641CE4B25C45F6D37A
:104350000020FDF72CFC0B20FDF729FC0020FDF7C9
:1043600026FC3846FDF723FC002406E0281990F8C7
:10437000DC00FDF71CFC641CE4B2BC42F6D3002058
:10438000FDF715FC0C20FDF712FC0020FDF70FFCDB
:104390003046FDF70CFC002406E0281990F8F000E8
:1043A000FDF705FC641CE4B2B442F6D304211948BD
:1043B000FDF70AFC6BAA0021154809F02CFC6DB032
:1043C000BDE8F08F2DE9F04FDFF838B0B5B00BF154
:1043D0004F0B9BF80900012856D09BF80210584655
:1043E00000294FD101218BF8021007F007FE0220AF
:1043F00004F00DFEEE20FDF7DAFBB120FDF7D7FB50
:10440000232009E0444900200C02002040E2010082
:10441000080600207C760108FDF7C9FB0020FDF7A7
:10442000C6FB0620FDF7C3FB0020FDF7C0FB3720CD
:10443000FDF7BDFB0020FDF7BAFB0421FE48FDF7A8
:10444000C3FB022004F0E3FDEE20FDF7B0FBB1203A
:10445000FDF7ADFB2320FDF7AAFB0020FDF7A7FB2E
:104460000620FDF7A4FB0020FDF7A1FB0A20FDF7C5
:104470009EFB0020FDF79BFB0421EF48FDF7A4FB0A
:1044800007F0C7FD35B09BE7EC4800260670467084
:10449000067146715438806A11F092FA02460B4652
:1044A0001EA8E7A1339011F0C1FEDFF89C93C7B2BC
:1044B000D9F8040011F084FA02460B46AFF2CC4161
:1044C00023A8329011F0B2FEC5B2022004F09FFD85
:1044D00007F094FDEE20FDF76AFBB120FDF767FBC6
:1044E0001020FDF764FB0020FDF761FB0620FDF7BF
:1044F0005EFB0020FDF75BFB1E20FDF758FB002450
:10450000E84607E008EB040090F87800FDF74FFB61
:10451000641CE4B2BC42F5D30421C748FDF754FB48
:10452000022004F074FDEE20FDF741FBB120FDF701
:104530003EFB1020FDF73BFB0020FDF738FB06207B
:10454000FDF735FB0020FDF732FB0F20FDF72FFBB9
:10455000002407E00DEB040090F88C00FDF727FB2A
:10456000641CE4B2AC42F5D30421B348FDF72CFB44
:1045700007F04FFD9BF80F00DFF8D0A201287CD197
:10458000D9F804004F46C9F8080011F019FA02469C
:104590000B46AFF2A051329811F048FEC5B202208E
:1045A00004F035FD07F02AFDEE20FDF700FBB120F9
:1045B000FDF7FDFA1020FDF7FAFA0020FDF7F7FAF3
:1045C0000620FDF7F4FA0020FDF7F1FA0420FDF7CC
:1045D000EEFA0024E84607E008EB040090F88C00AF
:1045E000FDF7E5FA641CE4B2AC42F5D3042192482D
:1045F000FDF7EAFA07F00DFD022004F008FD07F0D0
:10460000FDFCEE20FDF7D3FAB120FDF7D0FA232010
:10461000FDF7CDFA0020FDF7CAFA0620FDF7C7FA2C
:104620000020FDF7C4FA3720FDF7C1FA0120FDF79D
:10463000BEFA04218048FDF7C7FA07F0EAFC4FF400
:104640009670B946CAF80000D6E0886A11F0B8F949
:1046500002460B467AA1339811F0E8FDC7B2D9F8AB
:10466000040011F0ADF902460B46AFF278613298C2
:1046700011F0DCFDC5B2022000E001E104F0C7FC4E
:1046800007F0BCFCEE20FDF792FAB120FDF78FFA9F
:104690001220FDF78CFA0020FDF789FA0620FDF7BD
:1046A00086FA0020FDF783FA1E20FDF780FA00202D
:1046B000FDF77DFA3846FDF77AFA002407E008EBAB
:1046C000040090F87800FDF772FA641CE4B2BC4272
:1046D000F5D30020FDF76BFA0F20FDF768FA0020F4
:1046E000FDF765FA2846FDF762FA0024474606E022
:1046F000381990F88C00FDF75AFA641CE4B2AC4209
:10470000F6D304214C48FDF75FFA07F082FC4B4AD0
:104710004C460123121D4E49201D02F053FCA0609F
:1047200007F06CFCA06811F04BF902460B46AFF2A3
:104730003C71329811F07AFDC5B2022004F067FC9A
:10474000EE20FDF734FAB120FDF731FA1020FDF725
:104750002EFA0020FDF72BFA0620FDF728FA00209C
:10476000FDF725FA0420FDF722FA002406E03819A7
:1047700090F88C00FDF71BFA641CE4B2AC42F6D34F
:1047800004212D48FDF720FA07F043FC4C46002396
:104790002A4A3049201D02F015FCE06334AA0821A2
:1047A000C8200BF02DFCE06B2B49A0F500008842DF
:1047B00022D88BF80F60022004F029FCEE20FDF7D0
:1047C000F6F9B120FDF7F3F92320FDF7F0F9002009
:1047D000FDF7EDF90620FDF7EAF90020FDF7E7F90E
:1047E0003720FDF7E4F90220FDF7E1F90421124832
:1047F000FDF7EAF9CAF8006010495439087820B981
:10480000DAF8000000287FF420AF1448D9F83C10F3
:10481000814235DD8BF80F60022004F0F8FBEE20BA
:10482000FDF7C5F9B120FDF7C2F92320FDF7BFF967
:104830000020FDF7BCF913E07C760108800200201F
:10484000252E32660000000044490020F0010020BF
:1048500074420020243C00200AD7233C0AD7A33C02
:104860000620FDF7A4F90020FDF7A1F93720FDF798
:104870009EF90320FDF79BF90421FC48FDF7A4F9FC
:104880009BF8100001287DD19BF815000128FAD172
:10489000D9F804004F46C9F80C0011F091F802460F
:1048A0000B46AFF6B001329811F0C0FCC5B2022041
:1048B00004F0ADFBEE20FDF77AF9B120FDF777F9B2
:1048C0001020FDF774F90020FDF771F90620FDF7BF
:1048D0006EF90020FDF76BF90920FDF768F9002457
:1048E00007E00DEB040090F88C00FDF760F9641C04
:1048F000E4B2AC42F5D30421DC48FDF765F90220AF
:1049000004F085FBEE20FDF752F9B120FDF74FF9D9
:104910002320FDF74CF90020FDF749F90620FDF7AB
:1049200046F90020FDF743F90A20FDF740F9012080
:10493000FDF73DF90421CD48FDF746F94FF4967097
:10494000B946CAF80000DDE0806A11F039F8024685
:104950000B46AFF21411339811F068FCC7B2D9F8C6
:10496000040011F02DF802460B46AFF6781132988C
:1049700011F05CFCC5B2022004F049FB07F03EFBDD
:10498000EE2000E0EDE0FDF712F9B120FDF70FF9A0
:104990001220FDF70CF90020FDF709F90620FDF7BC
:1049A00006F90020FDF703F91E20FDF700F90020AD
:1049B000FDF7FDF83846FDF7FAF80024E84607E071
:1049C00008EB040090F87800FDF7F1F8641CE4B2FD
:1049D000BC42F5D30020FDF7EAF80F20FDF7E7F819
:1049E0000020FDF7E4F82846FDF7E1F800244746EB
:1049F00006E0381990F88C00FDF7D9F8641CE4B291
:104A0000AC42F6D304219948FDF7DEF807F001FB2C
:104A1000DFF85C824C46012308F105029549201D10
:104A200002F0D0FAE06010F0CBFF02460B46AFF682
:104A30003C21329811F0FAFBC5B2022004F0E7FAEB
:104A400007F0DCFAEE20FDF7B2F8B120FDF7AFF881
:104A50001020FDF7ACF80020FDF7A9F80620FDF7BF
:104A6000A6F80020FDF7A3F80920FDF7A0F8002420
:104A700006E0381990F88C00FDF799F8641CE4B250
:104A8000AC42F6D304217948FDF79EF807F0C1FA4D
:104A90004C46002308F101027749201D02F092FAEA
:104AA000206434AA0821C8200BF0AAFA206C7349AC
:104AB000A0F50000884225D85C468BF810600220E3
:104AC00004F0A5FAEE20FDF772F8B120FDF76FF8BB
:104AD0002320FDF76CF80020FDF769F80620FDF7AC
:104AE00066F80020FDF763F80A20FDF760F8022061
:104AF000FDF75DF804215D48FDF766F80120CAF86E
:104B0000006060745A485438017821B9DAF800100E
:104B100000297FF419AF5A48D9F84010814220DDAE
:104B20008BF81060022004F072FAEE20FDF73FF8D7
:104B3000B120FDF73CF82320FDF739F80020FDF700
:104B400036F80620FDF733F80020FDF730F80A208C
:104B5000FDF72DF80320FDF72AF804214348FDF75F
:104B600033F89BF8110001287ED18BF811604C4678
:104B7000D9F80050D4E90270394610F0A5FC8046FF
:104B80003146284610F0A0FC414610F0D5FC054601
:104B9000206180F00040394610F09CFC606128469E
:104BA00010F00EFF02460B46AFF6B83128A811F000
:104BB0003DFBC7B2606910F003FF02460B46AFF63B
:104BC000CC312DA811F032FBC5B2022004F01FFA3F
:104BD00007F014FAEE20FCF7EAFFB120FCF7E7FF3C
:104BE0001220FCF7E4FF0020FCF7E1FF0620FCF7B1
:104BF000DEFF0020FCF7DBFF0C20FCF7D8FF0020D5
:104C0000FCF7D5FF3846FCF7D2FF0024E84607E062
:104C100008EB040090F8A000FCF7C9FF641CE4B2A4
:104C2000BC42F5D30020FCF7C2FF0D20FCF7BFFF0C
:104C30000020FCF7BCFF2846FCF7B9FF00244746DC
:104C400006E0381990F8B400FCF7B1FF641CE4B238
:104C5000AC42F6D304210548FCF7B6FF07F0D9F9BA
:104C6000022004F0D4F90DE02AE000007C7601086F
:104C70008002002008440020B83D00200AD7233CD1
:104C80000AD7A33C07F0BAF9FE4D4C462946D9F89D
:104C9000100010F01FFC10F04DFE0146002002F045
:104CA00018F92946606910F015FC10F043FE014622
:104CB000082002F00EF907F0ACF9012002F010FF15
:104CC0008BF8026035B05846BDE8F08F2DE9F0470B
:104CD000142005F0ACFF0646EB48EC49EC4D0068AB
:104CE000EC4C884271D1DFF8B093DFF8B08399F8CB
:104CF000000008F1180701280ED94046416A68688B
:104D000010F08EFE08D840466968C06910F0E2FBDA
:104D1000B96810F087FB206199F800004F4600EB5E
:104D2000400108EBC10050F80C1C686810F082FECE
:104D30000DD23878696800EB400208EBC20555F8DF
:104D4000140D10F0C7FB696810F06CFB2061D44DA6
:104D5000D04AD449687B563201284FF00103A2F1B2
:104D6000460038D002F02EF9606110F029FE0F469F
:104D70000546CD4ACD4B10F0D0FC10F034FEA061BA
:104D8000617802292ED02A463B46AFF6985130462C
:104D900011F04CFAC5B207F031F9EE20FCF707FF2D
:104DA000B120FCF704FF1020FCF701FF0020FCF706
:104DB000FEFE0020FCF7FBFE0020FCF7F8FE0120C1
:104DC000FCF7F5FE002417E0FFE76968286910F09A
:104DD00081FB6969B8E702F0F5F8D5F8091010F021
:104DE00021FBC1E710F0ECFD02460B46CDE7305D3C
:104DF000FCF7DDFE641CE4B2AC42F8D30421AC48FD
:104E0000FCF7E2FE07F005F90127022004F0FFF8A5
:104E100007F0F4F8EE20FCF7CAFEB120FCF7C7FE5D
:104E20001020FCF7C4FE0020FCF7C1FE3846FCF75A
:104E3000BEFE0020FCF7BBFE0E20FCF7B8FE0024EF
:104E400004E0305DFCF7B3FE641CE4B2AC42F8D37E
:104E500004219748FCF7B8FE07F0DBF87F1CFFB28F
:104E60000A2FD2D307F0CAF8EE20FCF7A0FEB1203B
:104E7000FCF79DFE1020FCF79AFE0020FCF797FE41
:104E80000B20FCF794FE0020FCF791FE0E20FCF7AF
:104E90008EFE002404E0305DFCF789FE641CE4B261
:104EA000AC42F8D304218248FCF78EFE07F0B1F83B
:104EB000304605F0B5FE0020BDE8F0872DE9F04F43
:104EC000C3B00025D421684610F018F8794CD4F806
:104ED0000600A41C10F074FD02460B46AFF6EC6110
:104EE0000DF10A0011F0A2F9C7B2206810F068FDB8
:104EF00002460B46AFF6047105A811F097F900F0D1
:104F0000FF08E06810F05CFD02460B46AFF61C712E
:104F10000DF11E0011F08AF900F0FF0AA06810F0F0
:104F20004FFD02460B46AFF634710AA811F07EF928
:104F3000C6B2606910F044FD02460B46AFF64C71F4
:104F40000DF1320011F072F9C0B24190206910F0F9
:104F500037FD02460B46AFF664710FA811F066F9F3
:104F6000C0B24090E06910F02BFD02460B46AFF650
:104F70007C710DF1460011F059F9C0B23F90A06963
:104F800010F01EFD02460B46AFF6987114A811F002
:104F90004DF9C0B23E90606A10F012FD02460B4619
:104FA000AFF6B0710DF15A0011F040F9C0B23D906A
:104FB000206A10F005FD02460B46AFF6C87119A82D
:104FC00011F034F9C0B23C90E06A10F0F9FC0246EE
:104FD0000B46AFF6E0710DF16E0011F027F9C0B28B
:104FE0003B90A06A10F0ECFC02460B46AFF6FC7159
:104FF0001EA811F01BF9C0B23A90606B10F0E0FCF3
:1050000002460B462C490DF1820011F00FF9C0B297
:105010003990206B10F0D4FC02460B46264923A899
:1050200011F004F9C0B23890E06B10F0C9FC0246F0
:105030000B4621490DF1960011F0F8F8C0B23790F7
:10504000A06B10F0BDFC02460B461B4928A811F0CE
:10505000EDF8C0B23690606C10F0B2FC02460B4620
:1050600015490DF1AA0011F0E1F8C0B23590206C9D
:1050700010F0A6FC02460B460F492DA811F0D6F8F9
:105080001CE0000000007A440C02002040E2010015
:10509000444900202C020020AC020020E84B0020F4
:1050A000D84C00204C3F0020F6285C8FC2F504400D
:1050B0007C7601080F3B0020F43F000800F0FF0B56
:1050C000E06C10F07DFC02460B46F9490DF1BE0084
:1050D00011F0ACF800F0FF09A06C10F071FC024672
:1050E0000B46F34932A811F0A1F8C4B206F086FFCE
:1050F0000A2003F08CFFEE20FCF759FDB120FCF7ED
:1051000056FD1220FCF753FD0020FCF750FD08204F
:10511000FCF74DFD0020FCF74AFD0220FCF747FD9F
:105120000020FCF744FD3846FCF741FD06E00DEB9E
:105130000500807AFCF73BFD6D1CEDB2BD42F6D355
:105140000020FCF734FD0520FCF731FD0020FCF7C2
:105150002EFD4046FCF72BFD00256F4605E0781933
:10516000007DFCF724FD6D1CEDB24545F7D3002012
:10517000FCF71DFD0920FCF71AFD0020FCF717FDC8
:105180005046FCF714FD002505E07819807FFCF7F8
:105190000EFD6D1CEDB25545F7D30020FCF707FD61
:1051A0000A20FCF704FD0020FCF701FD3046FCF767
:1051B000FEFC002506E0781990F82800FCF7F7FCC3
:1051C0006D1CEDB2B542F6D30020FCF7F0FC1A20BE
:1051D000FCF7EDFC0020FCF7EAFC4198FCF7E7FC4B
:1051E000002506E0781990F83200FCF7E0FC6D1C11
:1051F000EDB241988542F5D30020FCF7D8FC1B2086
:10520000FCF7D5FC0020FCF7D2FC4098FCF7CFFC63
:10521000002506E0781990F83C00FCF7C8FC6D1CEE
:10522000EDB240988542F5D30020FCF7C0FC112078
:10523000FCF7BDFC0020FCF7BAFC3F98FCF7B7FC7C
:10524000002506E0781990F84600FCF7B0FC6D1CCC
:10525000EDB23F988542F5D30020FCF7A8FC122060
:10526000FCF7A5FC0020FCF7A2FC3E98FCF79FFC95
:10527000002506E0781990F85000FCF798FC6D1CAA
:10528000EDB23E988542F5D30020FCF790FC0D204E
:10529000FCF78DFC0020FCF78AFC3D98FCF787FCAE
:1052A000002506E0781990F85A00FCF780FC6D1C88
:1052B000EDB23D988542F5D30020FCF778FC0F2035
:1052C000FCF775FC0020FCF772FC3C98FCF76FFCC7
:1052D000002506E0781990F86400FCF768FC6D1C66
:1052E000EDB23C988542F5D30020FCF760FC1F200E
:1052F000FCF75DFC0020FCF75AFC3B98FCF757FCE0
:10530000002506E0781990F86E00FCF750FC6D1C43
:10531000EDB23B988542F5D30020FCF748FC2020F5
:10532000FCF745FC0020FCF742FC3A98FCF73FFCF8
:10533000002506E0781990F87800FCF738FC6D1C21
:10534000EDB23A988542F5D30020FCF730FC2420DA
:10535000FCF72DFC0020FCF72AFC3998FCF727FC11
:10536000002506E0781990F88200FCF720FC6D1CFF
:10537000EDB239988542F5D30020FCF718FC2620C1
:10538000FCF715FC0020FCF712FC3898FCF70FFC2A
:10539000002506E0781990F88C00FCF708FC6D1CDD
:1053A000EDB238988542F5D30020FCF700FC2820A8
:1053B000FCF7FDFB0020FCF7FAFB3798FCF7F7FB46
:1053C000002506E0781990F89600FCF7F0FB6D1CBC
:1053D000EDB237988542F5D30020FCF7E8FB292091
:1053E000FCF7E5FB0020FCF7E2FB3698FCF7DFFB5F
:1053F000002506E0781990F8A000FCF7D8FB6D1C9A
:10540000EDB236988542F5D30020FCF7D0FB2B2077
:10541000FCF7CDFB0020FCF7CAFB3598FCF7C7FB77
:10542000002506E0781990F8AA00FCF7C0FB6D1C77
:10543000EDB235988542F5D30020FCF7B8FB2C205F
:10544000FCF7B5FB0020FCF7B2FB5846FCF7AFFBBE
:10545000002506E0781990F8B400FCF7A8FB6D1C55
:10546000EDB25D45F6D30020FCF7A1FB2E20FCF742
:105470009EFB0020FCF79BFB4846FCF798FB0025B1
:1054800006E0781990F8BE00FCF791FB6D1CEDB2B8
:105490004D45F6D30020FCF78AFB2F20FCF787FB55
:1054A0000020FCF784FB2046FCF781FB002508E088
:1054B000F43F0008781990F8C800FCF778FB6D1CE1
:1054C000EDB2A542F6D30421FE48FCF77DFB06F0C1
:1054D000A0FD43B0BDE8F08F70B51E2001F055FD72
:1054E00010F0FCF9F84D294610F026F8F74CC4F8F6
:1054F00006002620A41C01F048FD10F0EFF9294613
:1055000010F01AF820602E2001F03FFD10F0E6F9AF
:10551000294610F011F8E060362001F036FD10F059
:10552000DDF9294610F008F8A0603E2001F02DFDBD
:1055300010F0D4F929460FF0FFFF6061462001F01A
:1055400024FD10F0CBF929460FF0F6FF20614E2024
:1055500001F01BFD10F0C2F929460FF0EDFFE061EC
:10556000562001F012FD10F0B9F929460FF0E4FFC2
:10557000A0615E2001F009FD10F0B0F929460FF09E
:10558000DBFF6062662001F000FD10F0A7F92946FC
:105590000FF0D2FF20626E2001F0F7FC10F09EF9B0
:1055A00029460FF0C9FFE062762001F0EEFC10F012
:1055B00095F929460FF0C0FFA062802001F0E5FCBC
:1055C00010F08CF929460FF0B7FF6063882001F0D6
:1055D000DCFC10F083F929460FF0AEFF2063902029
:1055E00001F0D3FC10F07AF929460FF0A5FFE06333
:1055F000982001F0CAFC10F071F929460FF09CFFC9
:10560000A063A02001F0C1FC10F068F929460FF05A
:1056100093FF6064A82001F0B8FC10F05FF9294600
:105620000FF08AFF2064B02001F0AFFC10F056F9B3
:1056300029460FF081FFE064B82001F0A6FC10F0CD
:105640004DF929460FF078FFA06470BD70B505468E
:105650000024EE20FCF7ABFAB120FCF7A8FA2320D7
:10566000FCF7A5FA0020FCF7A2FA2046FCF79FFA07
:105670000120FCF79CFA2C20FCF799FA2846FCF74D
:1056800096FA04218F48FCF79FFA641CE4B20D2CB3
:10569000DFD370BD2DE9F0478C4FDFF83892DFF88B
:1056A00030A2002501260AF14404D7F80600D9F8F3
:1056B000381010F0B5F934D2D7F80210D9F8380004
:1056C00010F0AEF92DD26078012856D10A2003F0EF
:1056D0009EFC06F093FCEE20FCF769FAB120FCF783
:1056E00066FA5120FCF763FA0020FCF760FA052007
:1056F000FCF75DFA0020FCF75AFA0120FCF757FA94
:105700000020FCF754FA0020FCF751FA04216D4800
:10571000FCF75AFA0020FFF799FF06F07AFC657053
:105720002BE0607848BB0A2003F071FC06F066FCB1
:10573000EE20FCF73CFAB120FCF739FA5020FCF7D8
:1057400036FA0020FCF733FA0520FCF730FA002087
:10575000FCF72DFA0120FCF72AFA0020FCF727FAC3
:105760000020FCF724FA04215648FCF72DFA01200A
:10577000FFF76CFF06F04DFC6670B846D7F80E00D8
:105780004F46D9F83C1010F04BF933D2D8F80A1034
:10579000F86B10F045F92DD2A078012856D10A20D7
:1057A00003F035FC06F02AFCEE20FCF700FAB120ED
:1057B000FCF7FDF95120FCF7FAF90020FCF7F7F9A6
:1057C0000520FCF7F4F90020FCF7F1F90120FCF7C3
:1057D000EEF90020FCF7EBF90120FCF7E8F90421D1
:1057E0003848FCF7F1F90020FFF730FF06F011FC14
:1057F000A5702BE0A07848BB0A2003F008FC06F057
:10580000FDFBEE20FCF7D3F9B120FCF7D0F95020D6
:10581000FCF7CDF90020FCF7CAF90520FCF7C7F921
:105820000020FCF7C4F90120FCF7C1F90020FCF7C7
:10583000BEF90120FCF7BBF904212248FCF7C4F9AA
:105840000120FFF703FF06F0E4FBA670D8F816006E
:10585000B946796B10F0E4F83ED2D8F81210D9F8B6
:10586000340010F0DDF837D2E078012860D10A204A
:1058700003F0CDFB06F0C2FBEE20FCF798F9B12057
:10588000FCF795F95120FCF792F90020FCF78FF90D
:105890000520FCF78CF90020FCF789F90120FCF7C2
:1058A00086F90020FCF783F90220FCF780F9042137
:1058B0000448FCF789F90020FFF7C8FE06F0A9FBB1
:1058C000E57035E07C76010800007A440F3B00204B
:1058D000444900202C020020E07848BB0A2003F055
:1058E00096FB06F08BFBEE20FCF761F9B120FCF78C
:1058F0005EF95020FCF75BF90020FCF758F9052011
:10590000FCF755F90020FCF752F90120FCF74FF99C
:105910000020FCF74CF90220FCF749F90421FE486D
:10592000FCF752F90120FFF791FE06F072FBE670DA
:105930004746D8F81E00C846D9F82C1010F070F869
:1059400034D2D7F81A10D8F82C0010F069F82DD2FC
:105950002079012856D10A2003F059FB06F04EFBAE
:10596000EE20FCF724F9B120FCF721F95120FCF7D7
:105970001EF90020FCF71BF90520FCF718F90020A0
:10598000FCF715F90120FCF712F90020FCF70FF9DC
:105990000320FCF70CF90421DF48FCF715F900207F
:1059A000FFF754FE06F035FB25712BE0207948BB4C
:1059B0000A2003F02CFB06F021FBEE20FCF7F7F8A1
:1059C000B120FCF7F4F85020FCF7F1F80020FCF7C8
:1059D000EEF80520FCF7EBF80020FCF7E8F80120D2
:1059E000FCF7E5F80020FCF7E2F80320FCF7DFF80D
:1059F0000421C948FCF7E8F80120FFF727FE06F06C
:105A000008FB2671D7F82600D8F8301010F008F8F7
:105A100034D2D7F82210D8F8300010F001F82DD287
:105A20006079012856D10A2003F0F1FA06F0E6FA6F
:105A3000EE20FCF7BCF8B120FCF7B9F85120FCF7D8
:105A4000B6F80020FCF7B3F80520FCF7B0F800200A
:105A5000FCF7ADF80120FCF7AAF80020FCF7A7F846
:105A60000420FCF7A4F80421AB48FCF7ADF80020B3
:105A7000FFF7ECFD06F0CDFA65712BE0607948BBCD
:105A80000A2003F0C4FA06F0B9FAEE20FCF78FF80A
:105A9000B120FCF78CF85020FCF789F80020FCF7C7
:105AA00086F80520FCF783F80020FCF780F8012039
:105AB000FCF77DF80020FCF77AF80420FCF777F873
:105AC00004219548FCF780F80120FFF7BFFD06F0A0
:105AD000A0FA6671D7F82E00D8F828100FF0A0FFB2
